:020000040800F2
:1000000000280020F50700085106000859060008DE
:10001000610600086906000871060008000000007B
:100020000000000000000000000000007906000849
:100030008506000800000000910600089D060008E3
:100040003D0800083D0800083D0800083D0800087C
:100050003D0800083D0800083D0800083D0800086C
:100060003D0800083D0800083D0800083D0800085C
:100070003D0800083D0800083D0800083D0800084C
:100080003D0800083D0800083D0800083D0800083C
:100090003D0800083D0800083D0800083D0800082C
:1000A0003D0800083D0800083D0800083D0800081C
:1000B0003D0800083D080008000000003D08000859
:1000C0003D08000800000000000000003D08000896
:1000D000000000003D0800083D0800080000000086
:1000E0003D0800083D0800083D0800080000000029
:1000F0000000000000000000000000000000000000
:0C01000000000000000000005FF808F1A3
:10010C0010B5054C237833B9044B13B10448AFF345
:10011C0000800123237010BD680000200000000047
:10012C00CC30000808B5034B1BB103490348AFF3AF
:10013C00008008BD000000006C000020CC300008DE
:10014C0080B582B000AF7860391D4FF0FF330122CB
:10015C00034801F0B4FD7B6818460837BD4680BDE6
:10016C00DC000020B0B58AB002AF00F063FB00F0F9
:10017C00B5F800F04FF900F0EDF800F021F94FF070
:10018C0000024FF00003C7E904234FF000024FF0C8
:10019C000003C7E902230123FB710023FB83002327
:1001AC00BB834FF0FF333B60444802F01DF9322013
:1001BC0000F0A2FBF91D4FF0FF330122404801F083
:1001CC0009FEFB792F2B03D9FB79303BDBB2FB719A
:1001DC00FB79002B36D0FB79052B33D8FB7943F414
:1001EC008053DA171C461546C7E904450022012145
:1001FC00344800F005FE07F1080207F110014FF03A
:10020C00FF3300930823304801F0A6FA01220121A4
:10021C002C4800F0F5FD0A2000F06EFB00220121B5
:10022C00284800F0EDFD07F1080239464FF0FF3386
:10023C0000930823244801F08FFA01220121214860
:10024C0000F0DEFDD7E902014FF000024FF0000391
:10025C00020C42EA01420B0C93B2C3F30B03BB83B7
:10026C00D7E902014FF000024FF00003020F42EAFF
:10027C0001120B0F93B2C3F30B03FB83BB8B194619
:10028C00124802F049F8FB8B114AA2FB0323DB084E
:10029C009BB21846FA8B0E4BA3FB0213D9080B46E4
:1002AC009B000B445B00D31A9BB21A4601460948CB
:1002BC0002F032F8084802F097F87BE7E4300008C7
:1002CC00DC000020000C014084000020F430000809
:1002DC00CDCCCCCC003100081031000880B590B0EA
:1002EC0000AF07F1180328220021184602F05CF930
:1002FC003B1D00221A605A609A60DA601A61022370
:10030C00BB610123BB621023FB6200237B6307F1FB
:10031C001803184600F08CFD0346002B01D000F0AA
:10032C00C3F80F237B600023BB600023FB6000231A
:10033C003B6100237B613B1D0021184600F0FAFF56
:10034C000346002B01D000F0AFF800BF4037BD468C
:10035C0080BD000080B500AF174B184A1A60164BD1
:10036C004FF482725A60144B00229A60124B002296
:10037C00DA60114B00221A610F4B00225A610E4BAE
:10038C004FF400729A610C4B3822DA610A4B00224E
:10039C001A62094B00225A62074B00229A62064BE2
:1003AC000A22DA62044801F053F90346002B01D00B
:1003BC0000F07AF800BF80BD8400002000300140BE
:1003CC0080B500AF114B124A1A60104B4FF4165205
:1003DC005A600E4B00229A600C4B0022DA600B4BD9
:1003EC0000221A61094B0C225A61084B00229A61B7
:1003FC00064B0022DA61054801F011FC0346002B84
:10040C0001D000F051F800BF80BD00BFDC0000201F
:10041C000038014080B588B000AF07F1100300220E
:10042C001A605A609A60DA601D4B9B691C4A43F053
:10043C00200393611A4B9B6903F02003FB60FB685C
:10044C00174B9B69164A43F004039361144B9B6949
:10045C0003F00403BB60BB68114B9B69104A43F06B
:10046C00080393610E4B9B6903F008037B607B6868
:10047C00002201210B4800F0C3FC01233B61012346
:10048C007B610023BB610223FB6107F1100319465A
:10049C00044800F039FB00BF2037BD4680BD00BFCB
:1004AC0000100240000C014080B400AF72B600BFD7
:1004BC0000BFFDE780B485B000AF154B9B69144AB3
:1004CC0043F001039361124B9B6903F00103BB6082
:1004DC00BB680F4BDB690E4A43F08053D3610C4B66
:1004EC00DB6903F080537B607B680A4B5B68FB60C5
:1004FC00FB6823F0E063FB60FB6843F08063FB6008
:10050C00044AFB68536000BF1437BD4680BC70477B
:10051C00001002400000014080B588B000AF786048
:10052C0007F1100300221A605A609A60DA607B6847
:10053C001B681B4A93422FD11A4B9B69194A43F4EF
:10054C0080539361174B9B6903F48053FB60FB68EA
:10055C00144B9B69134A43F004039361114B9B6941
:10056C0003F00403BB60BB68A0233B6102237B61E7
:10057C000323FB6107F1100319460B4800F0C4FA82
:10058C0040233B6100237B610023BB6107F1100317
:10059C001946054800F0B8FA00BF2037BD4680BDAB
:1005AC0000300140001002400008014080B588B0C6
:1005BC0000AF786007F1100300221A605A609A604D
:1005CC00DA607B681B681C4A934231D11B4B9B69D8
:1005DC001A4A43F480439361184B9B6903F480439C
:1005EC00FB60FB68154B9B69144A43F00403936151
:1005FC00124B9B6903F00403BB60BB684FF40073A0
:10060C003B6102237B610323FB6107F11003194655
:10061C000B4800F079FA4FF480633B6100237B6157
:10062C000023BB6107F110031946054800F06CFA72
:10063C0000BF2037BD4680BD00380140001002408D
:10064C000008014080B400AF00BFFDE780B400AFEC
:10065C0000BFFDE780B400AF00BFFDE780B400AF82
:10066C0000BFFDE780B400AF00BFFDE780B400AF72
:10067C0000BFBD4680BC704780B400AF00BFBD4614
:10068C0080BC704780B400AF00BFBD4680BC7047D3
:10069C0080B500AF00F014F900BF80BD80B586B006
:1006AC0000AFF860B9607A6000237B610AE0AFF3B9
:1006BC0000800146BB685A1CBA60CAB21A707B69CA
:1006CC0001337B617A697B689A42F0DB7B68184660
:1006DC001837BD4680BD80B586B000AFF860B960F4
:1006EC007A6000237B6109E0BB685A1CBA601B78F6
:1006FC001846FFF725FD7B6901337B617A697B68BE
:10070C009A42F1DB7B6818461837BD4680BD80B431
:10071C0083B000AF78604FF0FF3318460C37BD46FE
:10072C0080BC704780B483B000AF786039603B68A0
:10073C004FF400525A60002318460C37BD4680BC5B
:10074C00704780B483B000AF7860012318460C3733
:10075C00BD4680BC704780B485B000AFF860B9600E
:10076C007A60002318461437BD4680BC70470000E1
:10077C0080B586B000AF7860144A154BD31A7B61F4
:10078C007B693B61134B1B68002B02D1114B124A46
:10079C001A60104B1A687B6813443A699A4207D264
:1007AC0001F050FF03460C221A604FF0FF3309E0B2
:1007BC00084B1B68FB60074B1A687B681344054A9F
:1007CC001360FB6818461837BD4680BD0028002012
:1007DC0000040000240100207802002080B400AF47
:1007EC0000BFBD4680BC7047FFF7F8FF0B480C49B3
:1007FC000C4A002302E0D458C4500433C4188C4271
:10080C00F9D3094A094C002301E013600432A242D7
:10081C00FBD301F01DFFFFF7A5FC70470000002083
:10082C00680000207C31000868000020780200205D
:10083C00FEE7000080B500AF084B1B68074A43F089
:10084C0010031360032000F02BF90F2000F008F8C0
:10085C00FFF730FE0023184680BD00BF0020024089
:10086C0080B582B000AF7860124B1A68124B1B78BF
:10087C0019464FF47A73B3FBF1F3B2FBF3F318465A
:10088C0000F035F90346002B01D001230EE07B6804
:10089C000F2B0AD8002279684FF0FF3000F00BF9CB
:1008AC00064A7B681360002300E0012318460837D2
:1008BC00BD4680BD00000020080000200400002080
:1008CC0080B400AF054B1B781A46054B1B681344CC
:1008DC00034A136000BFBD4680BC7047080000206F
:1008EC002801002080B400AF024B1B681846BD469F
:1008FC0080BC70472801002080B584B000AF7860C0
:10090C00FFF7F0FFB8607B68FB60FB68B3F1FF3F5B
:10091C0005D00A4B1B781A46FB681344FB6000BFDA
:10092C00FFF7E0FF0246BB68D31AFA689A42F7D881
:10093C0000BF00BF1037BD4680BD00BF08000020BF
:10094C0080B485B000AF78607B6803F00703FB6070
:10095C000C4BDB68BB60BA684FF6FF031340BB60FF
:10096C00FB681A02BB68134343F0BF6343F40033C4
:10097C00BB60044ABB68D36000BF1437BD4680BC63
:10098C00704700BF00ED00E080B400AF044BDB68A3
:10099C001B0A03F007031846BD4680BC704700BF16
:1009AC0000ED00E080B483B000AF03463960FB710A
:1009BC0097F90730002B0ADB3B68DAB20C4997F940
:1009CC0007301201D2B20B4483F800230AE03B68D3
:1009DC00DAB20849FB7903F00F03043B1201D2B2DF
:1009EC000B441A7600BF0C37BD4680BC704700BF65
:1009FC0000E100E000ED00E080B489B000AFF860E9
:100A0C00B9607A60FB6803F00703FB61FB69C3F113
:100A1C000703042B28BF0423BB61FB690433062B9B
:100A2C0002D9FB69033B00E000237B614FF0FF32EE
:100A3C00BB6902FA03F3DA43BB681A407B699A403C
:100A4C004FF0FF317B6901FA03F3D9437B680B400C
:100A5C00134318462437BD4680BC704780B582B01E
:100A6C0000AF78607B68013BB3F1807F01D3012339
:100A7C000FE00A4A7B68013B53600F214FF0FF30B7
:100A8C00FFF790FF054B00229A60044B07221A6077
:100A9C00002318460837BD4680BD00BF10E000E0BB
:100AAC0080B582B000AF78607868FFF749FF00BF6F
:100ABC000837BD4680BD80B586B000AF0346B9602F
:100ACC007A60FB7300237B61FFF75EFF78617A68C5
:100ADC00B9687869FFF790FF024697F90F30114615
:100AEC001846FFF75FFF00BF1837BD4680BD80B5C5
:100AFC0082B000AF78607868FFF7B0FF0346184605
:100B0C000837BD4680BD000080B48BB000AF786064
:100B1C00396000237B6200233B6261E101227B6A26
:100B2C0002FA03F3FB613B681B68FA691340BB6173
:100B3C00BA69FB699A4240F050813B685B68974AFE
:100B4C0093425ED0954A934275D8954A934258D0B9
:100B5C00934A93426FD8934A934252D0914A93420C
:100B6C0069D8914A93424CD08F4A934263D88F4AAA
:100B7C00934246D08D4A93425DD8122B2AD8122B21
:100B8C0059D801A252F823F00F0C0008E90B000809
:100B9C00FB0B00083D0C0008430C0008430C00083C
:100BAC00430C0008430C0008430C0008430C0008DD
:100BBC00430C0008430C0008430C0008430C0008CD
:100BCC00430C0008430C0008430C0008F10B000810
:100BDC00050C0008764A934213D02CE03B68DB6886
:100BEC003B6229E03B68DB6804333B6224E03B68F2
:100BFC00DB6808333B621FE03B68DB680C333B620D
:100C0C001AE03B689B68002B02D104233B6213E083
:100C1C003B689B68012B05D108233B627B68FA6912
:100C2C001A6109E008233B627B68FA695A6103E0A8
:100C3C0000233B6200E000BFBB69FF2B01D87B683F
:100C4C0001E07B6804337B61BB69FF2B02D87B6AB4
:100C5C009B0002E07B6A083B9B003B617B691A6846
:100C6C000F213B6901FA03F3DB431A40396A3B69F4
:100C7C0001FA03F31A437B691A603B685B6803F063
:100C8C008053002B00F0A9804A4B9B69494A43F0E2
:100C9C0001039361474B9B6903F00103BB60BB6885
:100CAC00454A7B6A9B08023352F82330FB607B6A0F
:100CBC0003F003039B000F2202FA03F3DB43FA68F1
:100CCC001340FB607B683D4A93420DD07B683C4AE5
:100CDC00934207D07B683B4A934201D1022304E044
:100CEC00032302E0012300E000237A6A02F00302EE
:100CFC0092009340FA681343FB602F497B6A9B0870
:100D0C000233FA6841F823203B685B6803F48013D4
:100D1C00002B06D02C4B9A682B49BB6913438B6074
:100D2C0006E0294B9A68BB69DB43274913408B606B
:100D3C003B685B6803F40013002B06D0224BDA6887
:100D4C002149BB691343CB6006E01F4BDA68BB69D2
:100D5C00DB431D491340CB603B685B6803F40033F5
:100D6C00002B06D0184B5A681749BB6913434B60CC
:100D7C0006E0154B5A68BB69DB43134913404B60C3
:100D8C003B685B6803F48033002B1FD00E4B1A6852
:100D9C000D49BB6913430B601FE000BF000032100C
:100DAC000000311000002210000021100000121071
:100DBC00000011100010024000000140000801402A
:100DCC00000C014000100140000401400B4B1A685C
:100DDC00BB69DB43094913400B607B6A01337B62BF
:100DEC003B681A687B6A22FA03F3002B7FF496AEF9
:100DFC0000BF00BF2C37BD4680BC704700040140CB
:100E0C0080B483B000AF78600B467B8013467B7058
:100E1C007B78002B03D07A887B681A6103E07B888F
:100E2C001A047B681A6100BF0C37BD4680BC704742
:100E3C0080B586B000AF78607B68002B01D10123B0
:100E4C0072E27B681B6803F00103002B00F08780C3
:100E5C00924B5B6803F00C03042B0CD08F4B5B683C
:100E6C0003F00C03082B12D18C4B5B6803F480331A
:100E7C00B3F5803F0BD1894B1B6803F40033002B77
:100E8C006CD07B685B68002B68D101234CE27B68DB
:100E9C005B68B3F5803F06D1804B1B687F4A43F4F7
:100EAC00803313602EE07B685B68002B0CD17B4B8E
:100EBC001B687A4A23F480331360784B1B68774A9B
:100ECC0023F4802313601DE07B685B68B3F5A02FCF
:100EDC000CD1724B1B68714A43F4802313606F4B27
:100EEC001B686E4A43F4803313600BE06B4B1B683A
:100EFC006A4A23F480331360684B1B68674A23F4F7
:100F0C00802313607B685B68002B13D0FFF7EAFC2F
:100F1C00386108E0FFF7E6FC02463B69D31A642B04
:100F2C0001D9032300E25D4B1B6803F40033002B53
:100F3C00F0D014E0FFF7D6FC386108E0FFF7D2FCE4
:100F4C0002463B69D31A642B01D90323ECE1534BC2
:100F5C001B6803F40033002BF0D100E000BF7B686A
:100F6C001B6803F00203002B63D04C4B5B6803F04F
:100F7C000C03002B0BD0494B5B6803F00C03082BC4
:100F8C001CD1464B5B6803F48033002B16D1434BCA
:100F9C001B6803F00203002B05D07B681B69012B37
:100FAC0001D00123C0E13D4B1B6823F0F8027B68A4
:100FBC005B69DB00394913430B603AE07B681B69C2
:100FCC00002B20D0364B01221A60FFF78BFC3861C6
:100FDC0008E0FFF787FC02463B69D31A022B01D9C4
:100FEC000323A1E12D4B1B6803F00203002BF0D06F
:100FFC002A4B1B6823F0F8027B685B69DB002749EE
:10100C0013430B6015E0264B00221A60FFF76AFCB5
:10101C00386108E0FFF766FC02463B69D31A022BE5
:10102C0001D9032380E11D4B1B6803F00203002B45
:10103C00F0D17B681B6803F00803002B3AD07B6867
:10104C009B69002B19D0174B01221A60FFF74AFC41
:10105C00386108E0FFF746FC02463B69D31A022BC5
:10106C0001D9032360E10D4B5B6A03F00203002BF3
:10107C00F0D0012000F0CEFA1CE00A4B00221A60DE
:10108C00FFF730FC38610FE0FFF72CFC02463B69A0
:10109C00D31A022B08D9032346E100BF00100240EB
:1010AC000000424280044242924B5B6A03F002030E
:1010BC00002BE9D17B681B6803F00403002B00F0C4
:1010CC00A6800023FB758B4BDB6903F08053002B50
:1010DC000DD1884BDB69874A43F08053D361854B34
:1010EC00DB6903F08053BB60BB680123FB75824B4B
:1010FC001B6803F48073002B18D17F4B1B687E4A4E
:10110C0043F480731360FFF7EDFB386108E0FFF7E1
:10111C00E9FB02463B69D31A642B01D9032303E193
:10112C00754B1B6803F48073002BF0D07B68DB6875
:10113C00012B06D16F4B1B6A6E4A43F001031362FD
:10114C002DE07B68DB68002B0CD16A4B1B6A694A6B
:10115C0023F001031362674B1B6A664A23F00403F6
:10116C0013621CE07B68DB68052B0CD1614B1B6A9E
:10117C00604A43F0040313625E4B1B6A5D4A43F002
:10118C00010313620BE05B4B1B6A5A4A23F0010309
:10119C001362584B1B6A574A23F0040313627B6893
:1011AC00DB68002B15D0FFF79DFB38610AE0FFF7D9
:1011BC0099FB02463B69D31A41F28832934201D91A
:1011CC000323B1E04B4B1B6A03F00203002BEED060
:1011DC0014E0FFF787FB38610AE0FFF783FB024658
:1011EC003B69D31A41F28832934201D903239BE025
:1011FC00404B1B6A03F00203002BEED1FB7D012B4D
:10120C0005D13C4BDB693B4A23F08053D3617B68AF
:10121C00DB69002B00F08780364B5B6803F00C0316
:10122C00082B61D07B68DB69022B46D1334B002243
:10123C001A60FFF757FB386108E0FFF753FB0246D3
:10124C003B69D31A022B01D903236DE0294B1B6890
:10125C0003F00073002BF0D17B681B6AB3F5803F61
:10126C0008D1244B5B6823F400327B689B682149CE
:10127C0013434B601F4B5B6823F474127B68196A31
:10128C007B685B6A0B431B4913434B601B4B01226E
:10129C001A60FFF727FB386108E0FFF723FB0246D3
:1012AC003B69D31A022B01D903233DE0114B1B6878
:1012BC0003F00073002BF0D035E0104B00221A60C5
:1012CC00FFF710FB386108E0FFF70CFB02463B69A7
:1012DC00D31A022B01D9032326E0064B1B6803F01B
:1012EC000073002BF0D11EE07B68DB69012B07D16A
:1012FC00012319E0001002400070004060004242DF
:10130C000B4B5B68FB60FB6803F480327B681B6AE9
:10131C009A4206D1FB6803F470127B685B6A9A42AE
:10132C0001D0012300E0002318461837BD4680BDCC
:10133C000010024080B584B000AF786039607B68E3
:10134C00002B01D10123D0E06A4B1B6803F007038B
:10135C003A689A4210D9674B1B6823F0070265491B
:10136C003B6813430B60634B1B6803F007033A683D
:10137C009A4201D00123B8E07B681B6803F002039A
:10138C00002B20D07B681B6803F00403002B05D0D6
:10139C00594B5B68584A43F4E06353607B681B68A5
:1013AC0003F00803002B05D0534B5B68524A43F4FF
:1013BC0060535360504B5B6823F0F0027B689B6872
:1013CC004D4913434B607B681B6803F00103002BF2
:1013DC0040D07B685B68012B07D1474B1B6803F43B
:1013EC000033002B15D101237FE07B685B68022B57
:1013FC0007D1414B1B6803F00073002B09D101236B
:10140C0073E03D4B1B6803F00203002B01D1012359
:10141C006BE0394B5B6823F003027B685B683649F1
:10142C0013434B60FFF75EFAF8600AE0FFF75AFAD5
:10143C000246FB68D31A41F28832934201D9032346
:10144C0053E02D4B5B6803F00C027B685B689B00E0
:10145C009A42EBD1274B1B6803F007033A689A4278
:10146C0010D2244B1B6823F0070222493B6813431C
:10147C000B60204B1B6803F007033A689A4201D0BB
:10148C00012332E07B681B6803F00403002B08D0B7
:10149C00194B5B6823F4E0627B68DB6816491343E5
:1014AC004B607B681B6803F00803002B09D0124BC0
:1014BC005B6823F460527B681B69DB000E491343A5
:1014CC004B6000F021F802460B4B5B681B0903F0E4
:1014DC000F030A49CB5C22FA03F3094A1360094B48
:1014EC001B681846FFF7BCF9002318461037BD4699
:1014FC0080BD00BF002002400010024014310008E3
:10150C00000000200400002080B487B000AF00234E
:10151C00FB600023BB6000237B6100237B60002306
:10152C003B611E4B5B68FB60FB6803F00C03042BF8
:10153C0002D0082B03D027E0194B3B6127E0FB6856
:10154C009B0C03F00F03174AD35C7B60FB6803F41E
:10155C008033002B10D0114B5B685B0C03F0010344
:10156C00114AD35CBB607B680D4A03FB02F2BB687B
:10157C00B2FBF3F37B6104E07B680C4A02FB03F3E0
:10158C007B617B693B6102E0054B3B6100BF3B69C2
:10159C0018461C37BD4680BC704700BF0010024087
:1015AC0000127A002C3100083C31000800093D0083
:1015BC0080B400AF024B1B681846BD4680BC704718
:1015CC000000002080B500AFFFF7F2FF0246054B8C
:1015DC005B681B0A03F007030349CB5C22FA03F395
:1015EC00184680BD001002402431000880B500AFC1
:1015FC00FFF7DEFF0246054B5B68DB0A03F00703CF
:10160C000349CB5C22FA03F3184680BD001002405C
:10161C002431000880B485B000AF78600A4B1B6899
:10162C000A4AA2FB03235B0A7A6802FB03F3FB6002
:10163C0000BFFB685A1EFA60002BF9D100BF00BF37
:10164C001437BD4680BC704700000020D34D62109B
:10165C0080B582B000AF78607B68002B01D101238C
:10166C0076E07B685B6A002B08D17B685B68B3F51E
:10167C00827F09D07B680022DA6105E07B6800225A
:10168C001A617B6800225A617B6800229A627B682F
:10169C0093F85130DBB2002B06D17B68002283F823
:1016AC0050207868FEF738FF7B68022283F85120BF
:1016BC007B681B681A687B681B6822F040021A6002
:1016CC007B685B6803F482727B689B6803F4044359
:1016DC001A437B68DB6803F400631A437B681B695D
:1016EC0003F002031A437B685B6903F001031A439E
:1016FC007B689B6903F400731A437B68DB6903F016
:10170C0038031A437B681B6A03F0800342EA030127
:10171C007B689B6A03F400527B681B680A431A605F
:10172C007B689B691A0C7B681B6802F004025A6088
:10173C007B681B68DA697B681B6822F40062DA61DB
:10174C007B6800225A657B68012283F851200023B4
:10175C0018460837BD4680BD80B58AB000AFF8602A
:10176C00B9607A607B8001237B62FFF7BBF838623B
:10177C00FB6893F85130FB77FB685B68BB617B8837
:10178C00FB82FB7F012B0CD0BB69B3F5827F06D1AA
:10179C00FB689B68002B02D1FB7F042B01D002233A
:1017AC007FE1BB68002B05D07B68002B02D07B88C7
:1017BC00002B01D1012374E1FB6893F85030012B0D
:1017CC0001D102236DE1FB68012283F85020FB68F4
:1017DC0093F85130DBB2042B03D0FB68052283F85D
:1017EC005120FB6800225A65FB687A689A63FB6893
:1017FC007A88DA87FB687A889A87FB68BA681A63F2
:10180C00FB687A88DA86FB687A889A86FB680022FD
:10181C001A64FB6800225A64FB681B681B6803F09F
:10182C004003402B07D0FB681B681A68FB681B68D9
:10183C0042F040021A60FB68DB68B3F5006F7ED1A2
:10184C00FB685B68002B02D0FB8A012B6CD1FB6818
:10185C001B6B1A88FB681B68DA60FB681B6B9A1C95
:10186C00FB681A63FB68DB8E9BB2013B9AB2FB6888
:10187C00DA8659E0FB681B689B6803F00203022BB5
:10188C001BD1FB68DB8E9BB2002B16D07B6A012B25
:10189C0013D1FB681B6B1A88FB681B68DA60FB684A
:1018AC001B6B9A1CFB681A63FB68DB8E9BB2013BBB
:1018BC009AB2FB68DA8600237B62FB681B689B6824
:1018CC0003F00103012B19D1FB68DB8F9BB2002BBA
:1018DC0014D0FB681B68DA68FB689B6B92B21A80A9
:1018EC00FB689B6B9A1CFB689A63FB68DB8F9BB253
:1018FC00013B9AB2FB68DA8701237B62FEF7F2FFA9
:10190C0002463B6AD31A3A6B9A420DD83B6BB3F141
:10191C00FF3F09D0FB68012283F85120FB680022AD
:10192C0083F850200323BCE0FB68DB8E9BB2002BBA
:10193C00A0D1FB68DB8F9BB2002B9BD182E0FB68B4
:10194C005B68002B02D0FB8A012B71D1FB681A6BF0
:10195C00FB681B680C3312781A70FB681B6B5A1CE3
:10196C00FB681A63FB68DB8E9BB2013B9AB2FB6887
:10197C00DA865DE0FB681B689B6803F00203022BB0
:10198C001CD1FB68DB8E9BB2002B17D07B6A012B22
:10199C0014D1FB681A6BFB681B680C3312781A7035
:1019AC00FB681B6B5A1CFB681A63FB68DB8E9BB2D3
:1019BC00013B9AB2FB68DA8600237B62FB681B68EA
:1019CC009B6803F00103012B19D1FB68DB8F9BB2E1
:1019DC00002B14D0FB681B68DA68FB689B6BD2B2D7
:1019EC001A70FB689B6B5A1CFB689A63FB68DB8F55
:1019FC009BB2013B9AB2FB68DA8701237B62FEF74C
:101A0C0071FF02463B6AD31A3A6B9A4203D83B6B7E
:101A1C00B3F1FF3F02D13B6B002B09D1FB680122D4
:101A2C0083F85120FB68002283F85020032338E010
:101A3C00FB68DB8E9BB2002B9CD1FB68DB8F9BB2CF
:101A4C00002B97D13A6A396BF86800F0B7F8034667
:101A5C00002B08D0FB6820225A65FB68002283F813
:101A6C00502001231DE0FB689B68002B0AD100234A
:101A7C003B61FB681B68DB683B61FB681B689B6810
:101A8C003B613B69FB68012283F85120FB68002213
:101A9C0083F85020FB685B6D002B01D0012300E024
:101AAC00002318462837BD4680BD000080B588B09D
:101ABC0000AFF860B9603B601346FB71FEF712FF94
:101ACC000246BB6A9B1A3A681344FB61FEF70AFF95
:101ADC00B861394B1B685B011B0DFA6902FB03F300
:101AEC007B6154E03B68B3F1FF3F50D0FEF7FAFE48
:101AFC000246BB69D31AFA699A4202D9FB69002BD8
:101B0C003DD1FB681B685A68FB681B6822F0E00239
:101B1C005A60FB685B68B3F5827F11D1FB689B68E8
:101B2C00B3F5004F04D0FB689B68B3F5806F07D109
:101B3C00FB681B681A68FB681B6822F040021A607D
:101B4C00FB689B6AB3F5005F0FD1FB681B681A68D2
:101B5C00FB681B6822F400521A60FB681B681A6849
:101B6C00FB681B6842F400521A60FB68012283F880
:101B7C005120FB68002283F85020032317E07B6977
:101B8C00002B01D10023FB617B69013B7B61FB686E
:101B9C001B689A68BB681340BA689A420CBF012351
:101BAC000023DBB21A46FB799A429BD100231846DC
:101BBC002037BD4680BD00BF0000002080B586B038
:101BCC0002AFF860B9607A607B680093BB68012251
:101BDC000221F868FFF76AFF0346002B07D0FB6869
:101BEC005B6D43F02002FB685A65032313E07B68AE
:101BFC000093BB6800228021F868FFF757FF03466B
:101C0C00002B07D0FB685B6D43F02002FB685A6524
:101C1C00032300E0002318461037BD4680BD80B575
:101C2C0082B000AF78607B68002B01D1012342E0C9
:101C3C007B6893F84130DBB2002B06D17B68002225
:101C4C0083F840207868FEF7B1FC7B68242283F887
:101C5C0041207B681B68DA687B681B6822F40052A1
:101C6C00DA60786800F008FA7B681B681A697B6890
:101C7C001B6822F490421A617B681B685A697B6866
:101C8C001B6822F02A025A617B681B68DA687B6841
:101C9C001B6842F40052DA607B6800225A647B684D
:101CAC00202283F841207B68202283F842207B6825
:101CBC0000225A63002318460837BD4680BD80B504
:101CCC008AB002AFF860B9603B601346FB8000231A
:101CDC007B61FB6893F84130DBB2202B75D1BB687C
:101CEC00002B02D0FB88002B01D101236EE0FB6896
:101CFC0000225A64FB68212283F84120FEF7F2FD92
:101D0C007861FB68FA889A84FB68FA88DA84FB6845
:101D1C009B68B3F5805F08D1FB681B69002B04D16D
:101D2C000023FB61BB68BB6103E0BB68FB61002364
:101D3C00BB612EE03B6800937B6900228021F86830
:101D4C0000F0DFF80346002B05D0FB68202283F857
:101D5C00412003233AE0FB69002B0BD1BB691B88A4
:101D6C001A46FB681B68C2F308025A60BB6902334F
:101D7C00BB6107E0FB691A78FB681B685A60FB695A
:101D8C000133FB61FB68DB8C9BB2013B9AB2FB68B5
:101D9C00DA84FB68DB8C9BB2002BCBD13B680093C5
:101DAC007B6900224021F86800F0ABF80346002B59
:101DBC0005D0FB68202283F84120032306E0FB6852
:101DCC00202283F84120002300E00223184620370C
:101DDC00BD4680BD80B58AB002AFF860B9603B608B
:101DEC001346FB8000237B61FB6893F84230DBB227
:101DFC00202B40F08180BB68002B02D0FB88002B8D
:101E0C0001D1012379E0FB6800225A64FB6822228D
:101E1C0083F84220FB6800221A63FEF763FD7861A9
:101E2C00FB68FA889A85FB68FA88DA85FB689B68F8
:101E3C00B3F5805F08D1FB681B69002B04D100232C
:101E4C00FB61BB68BB6103E0BB68FB610023BB614A
:101E5C0047E03B6800937B6900222021F86800F082
:101E6C0050F80346002B05D0FB68202283F8422053
:101E7C00032342E0FB69002B0CD1FB681B685B68F9
:101E8C009BB2C3F308039AB2BB691A80BB690233D5
:101E9C00BB611FE0FB689B68B3F5805F07D0FB68F4
:101EAC009B68002B0AD1FB681B69002B06D1FB68D1
:101EBC001B685B68DAB2FB691A7008E0FB681B6888
:101ECC005B68DBB203F07F03DAB2FB691A70FB6963
:101EDC000133FB61FB68DB8D9BB2013B9AB2FB6863
:101EEC00DA85FB68DB8D9BB2002BB2D1FB6820221C
:101EFC0083F84220002300E0022318462037BD4619
:101F0C0080BD80B586B000AFF860B9603B60134609
:101F1C00FB713BE03B6AB3F1FF3F37D0FEF7E2FCCD
:101F2C0002463B68D31A3A6A9A4202D33B6A002BA8
:101F3C0001D103233AE0FB681B68DB6803F0040360
:101F4C00002B23D0BB68802B20D0BB68402B1DD02E
:101F5C00FB681B681B6803F00803082B16D10023D1
:101F6C007B61FB681B681B687B61FB681B685B689B
:101F7C007B617B69F86800F01DF8FB6808225A64E5
:101F8C00FB68002283F8402001230FE0FB681B68EC
:101F9C001A68BB681340BA689A420CBF012300232D
:101FAC00DBB21A46FB799A42B4D000231846183794
:101FBC00BD4680BD80B495B000AF78607B681B686F
:101FCC000C337B637B6B53E8003F3B633B6B23F42D
:101FDC009073FB647B681B680C33FA6C3A64FB638C
:101FEC00F96B3A6C41E80023BB63BB6B002BE5D16A
:101FFC007B681B6814333B623B6A53E8003FFB6110
:10200C00FB6923F00103BB647B681B681433BA6C57
:10201C00FA62BB62B96AFA6A41E800237B627B6AA6
:10202C00002BE5D17B681B6B012B19D17B681B68DE
:10203C000C33FB60FB6853E8003FBB60BB6823F0CC
:10204C0010037B647B681B680C337A6CBA617B6110
:10205C007969BA6941E800233B613B69002BE5D102
:10206C007B68202283F842207B6800221A6300BF21
:10207C005437BD4680BC704780B584B000AF7860E3
:10208C007B681B681B6923F440517B68DA687B68AA
:10209C001B680A431A617B689A687B681B691A4340
:1020AC007B685B691343BB607B681B68DB6823F44C
:1020BC00B05323F00C037A681268B9680B43D360F1
:1020CC007B681B685B6923F440717B689A697B6849
:1020DC001B680A435A617B681B682C4A934203D1E4
:1020EC00FFF784FAF86002E0FFF76CFAF860FA6820
:1020FC0013469B0013449A001A447B685B689B0050
:10210C00B2FBF3F3224AA2FB03235B091901FA6821
:10211C0013469B0013449A001A447B685B689B002F
:10212C00B2FBF3F21A4BA3FB02035B09642000FB26
:10213C0003F3D31A1B013233154AA2FB03235B09A9
:10214C0003F0F0031944FA6813469B0013449A00F9
:10215C001A447B685B689B00B2FBF3F20C4BA3FB4D
:10216C0002035B09642000FB03F3D31A1B01323317
:10217C00074AA2FB03235B0903F00F027B681B6871
:10218C000A449A6000BF1037BD4680BD003801403C
:10219C001F85EB51002310B50446C0E90033C0E99C
:1021AC000433836081814366C281836119460822AE
:1021BC005C3000F0F9F90D4B246263620C4BA362A6
:1021CC000C4BE3620C4B23630C4B9C4206D003F18B
:1021DC006802944202D0D0339C4205D104F15800DD
:1021EC00BDE8104000F058BA10BD00BF052400082F
:1021FC00272400085F240008832400082C010020F9
:10220C00024A0349034800F069B800BF0C000020E3
:10221C00392F00081C00002041680C4B10B5994266
:10222C00044601D000F082FEA168094B994202D00D
:10223C00204600F07BFEE168064B994204D0204614
:10224C00BDE8104000F072BE10BD00BF2C01002094
:10225C0094010020FC01002010B50B4B0B4C0C4AD8
:10226C0020461A6004210022FFF794FF04F1680055
:10227C0001220921FFF78EFF04F1D0000222BDE8F4
:10228C0010401221FFF786BF640200202C010020B1
:10229C000D220008014800F000BA00BF6D020020BA
:1022AC00014800F0FBB900BF6D02002010B50446D8
:1022BC00FFF7F0FF236A1BB1BDE81040FFF7F0BF3A
:1022CC00044B2362044B1B68002BF5D1FFF7C4FFB2
:1022DC00F2E700BF25220008640200202DE9F84334
:1022EC000746884614460026D4E90195B9F1010940
:1022FC0005D52468002CF7D13046BDE8F883AB89AE
:10230C00012B07D9B5F90E30013303D029463846D5
:10231C00C04706436835E9E70FB407B5064904AB77
:10232C00086853F8042B8168019300F0D7FA03B0C6
:10233C005DF804EB04B0704718000020036A70B518
:10234C0005460E4684680BB9FFF7B0FF636EDB07DA
:10235C0005D4A389980502D4A06D00F09EF9A38939
:10236C00190702D52369002B35D12146284600F0E8
:10237C00C5F880B34FF0FF35636EDA0705D4A38937
:10238C009B0502D4A06D00F089F9284670BD002B86
:10239C0004DAA2699A4217DC0A2915D023685A1C60
:1023AC0022601970A36816F8011F013BA360002975
:1023BC00EDD1002B11DA22460A21284600F05FF8F5
:1023CC000130D7D00A25D7E72246284600F057F827
:1023DC000130E7D1CEE7013EE4E723685A1C2260C6
:1023EC000A221A70EEE70000024B01461868FFF74C
:1023FC00A5BF00BF1800002010B50C46B1F90E1097
:10240C0000F0FCF80028ABBF636DA3891B1823F404
:10241C008053ACBF6365A38110BD2DE9F0411F460D
:10242C008B890546DB050C46164605D50223002292
:10243C00B1F90E1000F0D0F8A389324623F4805382
:10244C00A38128463B46B4F90E10BDE8F04100F0DC
:10245C00E7B810B50C46B1F90E1000F0BDF8431CEE
:10246C00A38915BF606523F4805343F48053A38183
:10247C0018BFA38110BDB1F90E1000F09DB8F8B5CE
:10248C000E461446054618B1036A0BB9FFF70EFF4A
:10249C00A369A360A3891A0701D5236943B921460F
:1024AC00284600F02BF818B14FF0FF373846F8BD2E
:1024BC0023682269F6B2981A63693746834205DCB1
:1024CC002146284600F032FD0028EDD1A368013BDF
:1024DC00A36023685A1C22601E706269431C9A42D6
:1024EC0004D0A389DB07E1D50A2EDFD1214628468B
:1024FC0000F01CFD0028D9D0D6E7000038B5294BD8
:10250C00054618680C4618B1036A0BB9FFF7CEFEE6
:10251C00B4F90C30190722D4DA0607D409222A6040
:10252C0043F040034FF0FF30A38133E0580712D53E
:10253C00616B41B104F14403994202D0284600F08A
:10254C00AFF800236363A38923F02403A381002342
:10255C00636023692360A38943F00803A381236983
:10256C004BB9A38903F42073B3F5007F03D0214644
:10257C00284600F028FDB4F90C3013F001020AD003
:10258C000022A26062695242A261226942B913F030
:10259C008000C5D138BD990758BF6269A260F4E7C5
:1025AC000020F7E71800002003460244934200D1B4
:1025BC00704703F8011BF9E738B50023054D0446B5
:1025CC0008462B60FEF7A3F8431C02D12B6803B11D
:1025DC00236038BD6802002038B504460846114611
:1025EC000022054D2A601A46FEF7B5F8431C02D1AD
:1025FC002B6803B1236038BD6802002038B504464F
:10260C00084611460022054D2A601A46FEF746F888
:10261C00431C02D12B6803B1236038BD6802002033
:10262C0038B50446084611460022054D2A601A4664
:10263C00FEF751F8431C02D12B6803B1236038BD5F
:10264C0068020020014B1868704700BF180000207A
:10265C0070B500260C4D0D4C641BA410A64209D17C
:10266C0000F02EFD00260A4D0A4C641BA410A64255
:10267C0005D170BD55F8043B98470136EEE755F887
:10268C00043B98470136F2E77431000874310008B6
:10269C0074310008783100087047704770470000AB
:1026AC0038B50546002940D051F8043C0C1F002BCE
:1026BC00B8BFE41800F0DEF81C4A136833B9636045
:1026CC0014602846BDE8384000F0DAB8A34208D9B7
:1026DC00206821188B4201BF19685B6809182160BA
:1026EC00EDE71A465B680BB1A342FAD91168501892
:1026FC00A0420BD120680144501883421160E0D1F4
:10270C0018685B68084410605360DAE702D90C2340
:10271C002B60D6E7206821188B4201BF19685B68D3
:10272C000918216063605460CBE738BD7402002047
:10273C0070B50F4E0C463168054611B900F0A2FC7D
:10274C0030602146284600F09DFC431C03D14FF01D
:10275C00FF34204670BDC41C24F00304A042F8D002
:10276C00211A284600F08EFC0130F2D1EFE700BFB1
:10277C00700200202DE9F843CD1C25F00305083527
:10278C000C2D38BF0C25002D064601DBA94204D9BF
:10279C000C2333600020BDE8F883DFF8D48000F010
:1027AC0069F8D8F800301C4644BB29463046FFF780
:1027BC00BFFF431C044658D1D8F800402746002FD1
:1027CC0043D1002C4BD023683946304604EB030927
:1027DC0000F058FC814542D1216830466D1A2946DB
:1027EC00FFF7A6FF01303AD023682B442360D8F8BA
:1027FC0000305A6862BBC8F800700FE02268521BA8
:10280C0020D40B2A17D96119A342256018BF59602F
:10281C00636808BFC8F8001062514B60304600F086
:10282C002FF804F10B00231D20F00700C21A1CBF67
:10283C001B1AA350AFE76268A3420CBFC8F8002074
:10284C005A60EBE723466468AEE73C467F68B6E720
:10285C001A465B68A342FBD100235360DEE70C23CE
:10286C003046336000F00CF894E70560D6E700BF03
:10287C00740200200148FFF710BF00BF6C0200205B
:10288C000148FFF70BBF00BF6C020020936810B427
:10289C00013B002B936007DA9469A34201DB0A2900
:1028AC0002D110BCFFF7EBBD1368581C10601970F7
:1028BC00084610BC7047F8B506460F461446D518A6
:1028CC00AC4201D1002007E03A46304614F8011B17
:1028DC00FFF7DCFF431CF3D1F8BD00002DE9F04FEE
:1028EC000D461446984606469DB018B1036A0BB9BE
:1028FC00FFF7DCFC6B6ED90705D4AB899A0502D4C3
:10290C00A86DFFF7CAFEAB891B0701D52B699BB9D4
:10291C0029463046FFF7F2FD70B16B6EDC0704D52B
:10292C004FF0FF301DB0BDE8F08FAB899805F7D4A0
:10293C00A86DFFF7B3FEF3E70023099320238DF86E
:10294C00293030234FF00109CDF80C80DFF8A88135
:10295C008DF82A3023469A4613F8012B0AB1252A02
:10296C00F9D1BAEB040B0BD05B4622462946304614
:10297C00FFF7A1FF013000F0A780099A5A44099291
:10298C009AF80030002B00F09F8000234FF0FF32AC
:10299C00CDE905230AF1010A049307938DF853300E
:1029AC001A935446052214F8011B534800F07AFB85
:1029BC00049AD8B9D10644BF20238DF8533013079D
:1029CC0044BF2B238DF853309AF800302A2B15D0A6
:1029DC00544600204FF00A0C079A214611F8013B8F
:1029EC00303B092B4BD9B0B1079214E0A0EB080394
:1029FC0009FA03F31343A2460493D2E7039B191D70
:102A0C001B680391002BBBBF5B4242F00202079391
:102A1C000793B8BF049223782E2B0AD163782A2B04
:102A2C0032D1039B02341A1D1B68039243EAE373F1
:102A3C000593DFF8C8A003225046217800F032FB42
:102A4C0038B14022049BA0EB0A00824013430134AE
:102A5C00049314F8011B062229488DF8281000F065
:102A6C0021FB00283FD0274B1BBB039B073323F0D4
:102A7C00070308330393099B3B4409936AE70C460D
:102A8C0001200CFB0232A8E700234FF00A0C194678
:102A9C0001340593204610F8012B303A092A03D94A
:102AAC00002BC6D00591C4E7044601230CFB012181
:102ABC00F0E703AB00932A463046134B04A9AFF35F
:102ACC0000800746781CD6D16B6ED90705D4AB892C
:102ADC009A0502D4A86DFFF7E1FDAB895B063FF5C3
:102AEC001FAF09981EE703AB00932A463046064BEE
:102AFC0004A900F07DF8E4E73E31000844310008F9
:102B0C004831000800000000C32800082DE9F047F8
:102B1C00164698468A680B6907469342B8BF134617
:102B2C00336091F843200C46DDF820900AB1013354
:102B3C0033602368990642BF3368023333602568DB
:102B4C0015F0060506D104F1190AE36832689B1AE0
:102B5C00AB422BDC94F843302268003B18BF0123B6
:102B6C00920630D44146384604F14302C84701303E
:102B7C0023D02368226903F00603042B14BF00251D
:102B8C0033684FF0000608BFE56804F11A0408BF6B
:102B9C00ED1A54F8123C08BF25EAE5759342C4BF00
:102BAC009B1AED18B5421AD1002008E001235246B9
:102BBC0041463846C847013003D14FF0FF30BDE8DD
:102BCC00F0870135C1E73020E11881F843005A1C29
:102BDC0094F845102244023382F84310C2E70123D3
:102BEC00224641463846C8470130E6D00136D9E77F
:102BFC002DE9FF470F7E9146782F80460C469A466A
:102C0C000C9E01F1430207D8622F0AD8002F00F066
:102C1C00D180582F00F0B88004F1420684F842703D
:102C2C003AE0A7F16303152BF6D801A151F823F074
:102C3C00952C0008A92C0008252C0008252C000830
:102C4C00252C0008252C0008A92C0008252C000890
:102C5C00252C0008252C0008252C0008A72D000881
:102C6C00D32C0008612D0008252C0008252C000809
:102C7C00C92D0008252C0008D32C0008252C000891
:102C8C00252C0008692D000833681A1D1B6832605A
:102C9C0004F1420684F8423001239CE0336820683A
:102CAC00191D3160060601D51D6803E04506FBD5EC
:102CBC00B3F90050002D03DA2D236D4284F8433014
:102CCC000A23584811E021683368080653F8045B5E
:102CDC0002D4490648BFADB26F2F336014BF0A232C
:102CEC0008235048002184F843106668002EA66023
:102CFC0005DB21682E4321F0040121604BD01646E0
:102D0C00B5FBF3F103FB1157C75D06F8017D2F46A8
:102D1C00BB420D46F4D9082B0BD12368DF0708D52D
:102D2C00236961689942DEBF302306F8013C06F145
:102D3C00FF36921B22614B4621464046CDF800A03F
:102D4C0003AAFFF7E3FE01304AD14FF0FF3004B085
:102D5C00BDE8F087236843F02003236078273248CE
:102D6C0084F84570236831681F0651F8045B02D45F
:102D7C005F0648BFADB23160D90744BF43F02003B2
:102D8C0023601DB11023ADE72648E9E7236823F043
:102D9C0020032360F6E71646BDE733682568181D47
:102DAC00616930602E061B6801D5196002E0680667
:102DBC00FBD51980002316462361BCE7336800213C
:102DCC001A1D32601E686268304600F06BF908B15B
:102DDC00801B606063682361002384F84330AAE79A
:102DEC003246494640462369D0470130ADD023686E
:102DFC009B0713D4E068039B9842B8BF1846A6E71C
:102E0C000123324649464046D04701309DD001351A
:102E1C00E36803995B1AAB42F2DCEBE7002504F1A3
:102E2C001906F5E74F31000860310008B1F90C20A4
:102E3C00F8B5160705460C4654D44B68002B02DC3B
:102E4C000B6C002B48DDE66A002E45D0002312F4F3
:102E5C0080522F68216A2B6030D0626DA38959078C
:102E6C0005D56368D21A636B0BB1236CD21A00239D
:102E7C002846E66A216AB047431CA38906D1296813
:102E8C001D292BD8284ACA40D60727D500226260B4
:102E9C002269D904226004D5421C01D12B6803B9E4
:102EAC006065616B2F60B9B104F14403994202D0A3
:102EBC002846FFF7F5FB002363630DE0012328464A
:102ECC00B0470246501CC9D12B68002BC6D01D2B15
:102EDC0001D0162B1DD12F60002021E043F04003C0
:102EEC001BB21AE00F69002FF6D0930718BF00230E
:102EFC000E6808BF4B69F61B0F608B60002EEBDD74
:102F0C0033463A462846216AD4F828C0E0470028C0
:102F1C0007DCB4F90C3043F040034FF0FF30A381D1
:102F2C00F8BD0744361AE9E70100402038B50B69B3
:102F3C0005460C4613B90025284638BD18B1036A5E
:102F4C000BB9FFF7B3F9B4F90C30002BF3D0626E68
:102F5C00D00704D4990502D4A06DFFF79EFB284638
:102F6C002146FFF763FF636E0546DA07E4D4A389B5
:102F7C009B05E1D4A06DFFF791FBDDE770B50C4626
:102F8C00B1F90E10154600291E4696B00CDAA3892D
:102F9C00002113F0800F14BF40234FF480630020F6
:102FAC0031602B6016B070BD6A4600F049F80028FD
:102FBC00EDDB019901F47041A1F5005359425941DF
:102FCC004FF48063EBE78B89F7B59D0706460C46FB
:102FDC0007D504F14703236023610123636103B028
:102FEC00F0BD6A4601ABFFF7C9FF009F05463946A5
:102FFC003046FFF7BFFB48B9B4F90C309A05EED454
:10300C0023F0030343F00203A381E2E7A389C4E99D
:10301C00040743F08003A381019B20605BB1304621
:10302C00B4F90E1000F01EF828B1A38923F00303A5
:10303C0043F00103A381A3891D43A581CFE70000C1
:10304C0038B50023064D0446084611462B60FDF7A3
:10305C0069FB431C02D12B6803B1236038BD00BF50
:10306C006802002038B50023054D044608462B6045
:10307C00FDF767FB431C02D12B6803B1236038BDFD
:10308C006802002038B50023054D044608462B6025
:10309C00FDF76EFB431C02D12B6803B1236038BDD6
:1030AC0068020020034610B5C9B202449342184688
:1030BC0001D1002003E0047801338C42F6D110BD1D
:1030CC00F8B500BFF8BC08BC9E467047F8B500BF09
:0830DC00F8BC08BC9E467047D9
:1030E40053797374656D2053746172740D0000001C
:1030F40053706565643D20256C64000020566F6C38
:10310400743D20256C642E256C6400000D000000C5
:103114000000000000000000010203040607080983
:103124000000000001020304020304050607080965
:103134000A0B0C0D0E0F10100102232D302B200052
:10314400686C4C006566674546470030313233345D
:1031540035363738394142434445460030313233FD
:1031640034353637383961626364656600000000BF
:04317400310100081D
:043178000D0100083D
:10317C0000127A00100000000100000000000000A6
:10318C00030000002C0100201C00002000000000A7
:10319C002C01002094010020FC0100200000000004
:1031AC000000000000000000000000000000000013
:1031BC000000000000000000000000000000000003
:1031CC0000000000000000000000000000000000F3
:0831DC000000000000000000EB
:04000005080007F5F3
:00000001FF
