:020000040800F2
:1000000000280020650D0008C10B0008C90B00087E
:10001000D10B0008D90B0008E10B0008000000001C
:10002000000000000000000000000000E90B0008D4
:10003000F50B000800000000010C00080D0C000882
:10004000AD0D0008AD0D0008AD0D0008AD0D0008A8
:10005000AD0D0008AD0D0008AD0D0008AD0D000898
:10006000AD0D0008AD0D0008AD0D0008AD0D000888
:10007000AD0D0008AD0D0008AD0D0008AD0D000878
:10008000AD0D0008AD0D0008AD0D0008AD0D000868
:10009000AD0D0008AD0D0008AD0D0008AD0D000858
:1000A000AD0D0008AD0D0008AD0D0008AD0D000848
:1000B000AD0D0008AD0D000800000000AD0D0008FA
:1000C000AD0D00080000000000000000AD0D0008AC
:1000D00000000000AD0D0008AD0D0008000000009C
:1000E000AD0D0008AD0D0008AD0D000800000000CA
:1000F0000000000000000000000000000000000000
:0C01000000000000000000005FF808F1A3
:1001100010B5054C237833B9044B13B10448AFF341
:1001200000800123237010BD680000200000000043
:10013000983A000808B5034B1BB103490348AFF3D5
:10014000008008BD000000006C000020983A000804
:1001500070B54FF0FF0C4CF4E06C1CEA11541DBF5D
:100160001CEA135594EA0C0F95EA0C0F00F0DEF828
:100170002C4481EA030621EA4C5123EA4C5350EA0D
:10018000013518BF52EA033541F4801143F480135E
:1001900038D0A0FB02CE4FF00005E1FB02E506F0EF
:1001A0000042E0FB03E54FF00006E1FB03569CF044
:1001B000000F18BF4EF0010EA4F1FF04B6F5007F4A
:1001C00064F5407404D25FEA4E0E6D4146EB0606BC
:1001D00042EAC62141EA55514FEAC52040EA5E5045
:1001E0004FEACE2EB4F1FD0C88BFBCF5E06F1ED8EF
:1001F000BEF1004F08BF5FEA500E50F1000041EB26
:10020000045170BD06F0004646EA010140EA0200D2
:1002100081EA0301B4EB5C04C2BFD4EB0C0541EAF4
:10022000045170BD41F480114FF0000E013C00F309
:10023000AB8014F1360FDEBF002001F0004170BD2D
:10024000C4F10004203C35DA0C341BDC04F1140446
:10025000C4F1200500FA05F320FA04F001FA05F2D2
:1002600040EA020001F0004221F0004110EBD3709F
:1002700021FA04F642EB06015EEA430E08BF20EACB
:10028000D37070BDC4F10C04C4F1200500FA04F36E
:1002900020FA05F001FA04F240EA020001F0004100
:1002A00010EBD37041F100015EEA430E08BF20EA73
:1002B000D37070BDC4F1200500FA05F24EEA020EBB
:1002C00020FA04F301FA05F243EA020321FA04F0EA
:1002D00001F0004121FA04F220EA020000EBD370A1
:1002E0005EEA430E08BF20EAD37070BD94F0000FA1
:1002F0000FD101F00046400041EB010111F4801FD5
:1003000008BF013CF7D041EA060195F0000F18BF85
:10031000704703F00046520043EB030313F4801FC1
:1003200008BF013DF7D043EA0603704794EA0C0F7B
:100330000CEA135518BF95EA0C0F0CD050EA410691
:1003400018BF52EA4306D1D181EA030101F000410E
:100350004FF0000070BD50EA410606BF1046194636
:1003600052EA430619D094EA0C0F02D150EA013642
:1003700013D195EA0C0F05D152EA03361CBF104683
:1003800019460AD181EA030101F0004141F0FE4122
:1003900041F470014FF0000070BD41F0FE4141F4A6
:1003A000780170BD81F0004102E000BF83F000439E
:1003B00030B54FEA41044FEA430594EA050F08BF00
:1003C00090EA020F1FBF54EA000C55EA020C7FEAC4
:1003D000645C7FEA655C00F0E2804FEA5454D4EB41
:1003E0005555B8BF6D420CDD2C4480EA020281EA0B
:1003F000030382EA000083EA010180EA020281EA43
:100400000303362D88BF30BD11F0004F4FEA013194
:100410004FF4801C4CEA113102D0404261EB4101A3
:1004200013F0004F4FEA03334CEA133302D0524229
:1004300063EB430394EA050F00F0A780A4F10104E5
:10044000D5F1200E0DDB02FA0EFC22FA05F280181F
:1004500041F1000103FA0EF2801843FA05F3594105
:100460000EE0A5F120050EF1200E012A03FA0EFC84
:1004700028BF4CF0020C43FA05F3C01851EBE371AE
:1004800001F0004507D54FF0000EDCF1000C7EEBCB
:1004900000006EEB0101B1F5801F1BD3B1F5001F09
:1004A0000CD349085FEA30004FEA3C0C04F1010428
:1004B0004FEA445212F5800F80F09A80BCF1004F51
:1004C00008BF5FEA500C50F1000041EB045141EAD3
:1004D000050130BD5FEA4C0C404141EB0101013C9C
:1004E00028BFB1F5801FE9D291F0000F04BF01468B
:1004F0000020B1FA81F308BF2033A3F10B03B3F15D
:1005000020020CDA0C3208DD02F1140CC2F10C02EC
:1005100001FA0CF021FA02F10CE002F11402D8BF4A
:10052000C2F1200C01FA02F120FA0CFCDCBF41EA16
:100530000C019040E41AA2BF01EB0451294330BDE5
:100540006FEA04041F3C1CDA0C340EDC04F11404C2
:10055000C4F1200220FA04F001FA02F340EA030099
:1005600021FA04F345EA030130BDC4F10C04C4F1DF
:10057000200220FA02F001FA04F340EA03002946BF
:1005800030BD21FA04F0294630BD94F0000F83F409
:10059000801306BF81F480110134013D4EE77FEAEC
:1005A000645C18BF7FEA655C29D094EA050F08BF38
:1005B00090EA020F05D054EA000C04BF1946104619
:1005C00030BD91EA030F1EBF0021002030BD5FEA5D
:1005D000545C05D14000494128BF41F0004130BD85
:1005E00014F580043CBF01F5801130BD01F00045D9
:1005F00045F0FE4141F470014FF0000030BD7FEA4C
:10060000645C1ABF194610467FEA655C1CBF0B4646
:10061000024650EA013406BF52EA033591EA030F5D
:1006200041F4002130BD00BF90F0000F04BF002155
:10063000704730B54FF4806404F132044FF0000588
:100640004FF0000150E700BF90F0000F04BF002101
:10065000704730B54FF4806404F1320410F0004567
:1006600048BF40424FF000013EE700BF42004FEA62
:10067000E2014FEA31014FEA02701FBF12F07F43DF
:1006800093F07F4F81F06051704732F07F4208BF96
:10069000704793F07F4F04BF41F40021704730B59D
:1006A0004FF4607401F0004521F000411CE700BFE9
:1006B00050EA010208BF704730B54FF000050AE06C
:1006C00050EA010208BF704730B511F0004502D56D
:1006D000404261EB41014FF4806404F132045FEA6F
:1006E000915C3FF4D8AE4FF003025FEADC0C18BF18
:1006F00003325FEADC0C18BF033202EBDC02C2F10A
:10070000200300FA03FC20FA02F001FA03FE40EA9B
:100710000E0021FA02F11444BDE600BF4A0011D2D6
:1007200012F5001211D20DD56FF47873B3EB62524B
:100730000ED44FEAC12343F0004343EA505323FA57
:1007400002F070474FF00000704750EA013002D1CC
:100750004FF0FF3070474FF00000704780B582B017
:1007600000AF7860391D4FF0FF330122034802F0DB
:1007700029F87B6818460837BD4680BDB4000020C4
:1007800080B500AF00F014FB00F07AF800F042F9F9
:1007900000F0C6F800F014F9334800F067FC64215B
:1007A000314800F03DFD304800F040FE03469AB26B
:1007B0002E4B1A802C4800F059FC64212A4800F086
:1007C0002FFD294800F032FE03469AB2284B1A80CA
:1007D000254800F0F9FC254B1B881846FFF734FF2D
:1007E0001DA3D3E90023FFF7B3FC02460B461046D6
:1007F0001946FFF793FF0346DBB21A461B4B1A80DC
:100800001B4B1B881846FFF71FFF15A3D3E90023D6
:10081000FFF79EFC02460B4610461946FFF77EFF87
:100820000346DBB21A46124B1A80114B1B8819463D
:10083000104802F05DFA0D4B1B8819460E4802F075
:1008400057FA0E4802F0BCFA4FF47A7000F012FB2F
:1008500000BFA1E7AFF30080132CC1122CC1A23F4F
:10086000199001199001993F84000020FE0000209A
:10087000FC000020B03A0008BC3A0008CC3A00085E
:1008800080B594B000AF07F1280328220021184654
:1008900002F076FB07F1140300221A605A609A6096
:1008A000DA601A613B1D00221A605A609A60DA60B1
:1008B0000223BB620123BB631023FB6300237B6421
:1008C00007F12803184601F0B1F90346002B01D0C7
:1008D00000F0B6F80F237B610023BB610023FB61AE
:1008E00000233B6200237B6207F1140300211846BA
:1008F00001F01EFC0346002B01D000F0A1F80223FA
:100900007B600023FB603B1D184601F09FFD034602
:10091000002B01D000F094F800BF5037BD4680BDD9
:1009200080B584B000AF3B1D00221A605A609A6007
:10093000214B224A1A60204B4FF480729A601E4B62
:1009400000221A731C4B01221A751B4B01229A615B
:10095000194B4FF46022DA61174B00225A60164B94
:1009600002221A61144800F0A9FA0346002B01D0B4
:1009700000F066F800237B600123BB600423FB606A
:100980003B1D19460C4800F05DFD0346002B01D0CD
:1009900000F056F801237B600223BB603B1D194623
:1009A000054800F04FFD0346002B01D000F048F849
:1009B00000BF1037BD4680BD8400002000240140E8
:1009C00080B500AF114B124A1A60104B4FF416520B
:1009D0005A600E4B00229A600C4B0022DA600B4BDF
:1009E00000221A61094B0C225A61084B00229A61BD
:1009F000064B0022DA61054801F094FE0346002B05
:100A000001D000F01DF800BF80BD00BFB400002081
:100A10000038014080B483B000AF084B9B69074A9F
:100A200043F004039361054B9B6903F004037B606F
:100A30007B6800BF0C37BD4680BC70470010024089
:100A400080B400AF72B600BF00BFFDE780B485B0D0
:100A500000AF154B9B69144A43F001039361124B9D
:100A60009B6903F00103BB60BB680F4BDB690E4A57
:100A700043F08053D3610C4BDB6903F080537B6000
:100A80007B680A4B5B68FB60FB6823F0E063FB60FC
:100A9000FB6843F08063FB60044AFB68536000BF5F
:100AA0001437BD4680BC7047001002400000014072
:100AB00080B588B000AF786007F1100300221A609B
:100AC0005A609A60DA607B681B68144A934221D1AD
:100AD000134B9B69124A43F400739361104B9B695B
:100AE00003F40073FB60FB680D4B9B690C4A43F0F9
:100AF000040393610A4B9B6903F00403BB60BB686A
:100B000003233B6103237B6107F11003194605486A
:100B100000F010FF00BF2037BD4680BD002401401B
:100B2000001002400008014080B588B000AF786036
:100B300007F1100300221A605A609A60DA607B683D
:100B40001B681C4A934231D11B4B9B691A4A43F4E0
:100B500080439361184B9B6903F48043FB60FB68FF
:100B6000154B9B69144A43F004039361124B9B6934
:100B700003F00403BB60BB684FF400733B610223C6
:100B80007B610323FB6107F1100319460B4800F05A
:100B9000D1FE4FF480633B6100237B610023BB6186
:100BA00007F110031946054800F0C4FE00BF2037C6
:100BB000BD4680BD003801400010024000080140E1
:100BC00080B400AF00BFFDE780B400AF00BFFDE719
:100BD00080B400AF00BFFDE780B400AF00BFFDE709
:100BE00080B400AF00BFFDE780B400AF00BFBD46DA
:100BF00080BC704780B400AF00BFBD4680BC70476A
:100C000080B400AF00BFBD4680BC704780B500AF68
:100C100000F014F900BF80BD80B586B000AFF86069
:100C2000B9607A6000237B610AE0AFF3008001467F
:100C3000BB685A1CBA60CAB21A707B6901337B6107
:100C40007A697B689A42F0DB7B6818461837BD46A4
:100C500080BD80B586B000AFF860B9607A600023CF
:100C60007B6109E0BB685A1CBA601B781846FFF725
:100C700075FD7B6901337B617A697B689A42F1DBA0
:100C80007B6818461837BD4680BD80B483B000AF7E
:100C900078604FF0FF3318460C37BD4680BC704774
:100CA00080B483B000AF786039603B684FF4005285
:100CB0005A60002318460C37BD4680BC704780B48C
:100CC00083B000AF7860012318460C37BD4680BC66
:100CD000704780B485B000AFF860B9607A600023D7
:100CE00018461437BD4680BC7047000080B586B0FA
:100CF00000AF7860144A154BD31A7B617B693B6166
:100D0000134B1B68002B02D1114B124A1A60104B77
:100D10001A687B6813443A699A4207D202F07EF956
:100D200003460C221A604FF0FF3309E0084B1B68A2
:100D3000FB60074B1A687B681344054A1360FB6825
:100D400018461837BD4680BD00280020000400006A
:100D5000000100205802002080B400AF00BFBD4653
:100D600080BC7047FFF7F8FF0B480C490C4A002382
:100D700002E0D458C4500433C4188C42F9D3094A51
:100D8000094C002301E013600432A242FBD302F0BD
:100D90004BF9FFF7F5FC70470000002068000020C9
:100DA0004C3B00086800002054020020FEE70000D1
:100DB00080B500AF084B1B68074A43F0100313606F
:100DC000032000F083FD0F2000F008F8FFF73EFE3F
:100DD0000023184680BD00BF0020024080B582B0CD
:100DE00000AF7860124B1A68124B1B7819464FF40B
:100DF0007A73B3FBF1F3B2FBF3F3184600F08DFD09
:100E00000346002B01D001230EE07B680F2B0AD88C
:100E1000002279684FF0FF3000F063FD064A7B68DE
:100E20001360002300E0012318460837BD4680BD4B
:100E300000000020080000200400002080B400AF63
:100E4000054B1B781A46054B1B681344034A136075
:100E500000BFBD4680BC7047080000200401002090
:100E600080B400AF024B1B681846BD4680BC70477B
:100E70000401002080B584B000AF7860FFF7F0FF78
:100E8000B8607B68FB60FB68B3F1FF3F05D00A4B9D
:100E90001B781A46FB681344FB6000BFFFF7E0FFB6
:100EA0000246BB68D31AFA689A42F7D800BF00BF5F
:100EB0001037BD4680BD00BF0800002080B586B059
:100EC00000AF78600023FB7500233B610023BB600B
:100ED0000023FB607B68002B01D10123BEE07B680F
:100EE0009B68002B7B689B6A002B09D17B680022E2
:100EF000DA627B68002283F824207868FFF7D8FD47
:100F0000786800F0F1FB0346FB757B689B6A03F091
:100F10001003002B40F09980FB7D002B40F0958062
:100F20007B689B6A23F4885323F0020343F0020298
:100F30007B689A627B685A687B68DB691A437B68C6
:100F40001B7B5B001343BA681343BB607B689B68E1
:100F5000B3F5807F03D07B689B68012B02D14FF4EF
:100F6000807300E000233A6913433B617B681B7D7B
:100F7000012B19D17B681B7B002B09D17B689B69F6
:100F8000013B5A033B69134343F400633B610BE0AD
:100F90007B689B6A43F020027B689A627B68DB6A0D
:100FA00043F001027B68DA627B681B685B6823F4AC
:100FB00069417B681B683A690A435A607B681B6811
:100FC0009A68284B13407A681268B9680B4393609B
:100FD0007B689B68B3F5807F03D07B689B68012B9F
:100FE00004D17B681B69013B1B05FB607B681B68A8
:100FF000DB6A23F470017B681B68FA680A43DA62D3
:101000007B681B689A68184B1340BA689A420BD1E8
:101010007B680022DA627B689B6A23F0030343F05B
:1010200001027B689A6218E07B689B6A23F01203D6
:1010300043F010027B689A627B68DB6A43F001022E
:101040007B68DA620123FB7507E07B689B6A43F0EB
:1010500010027B689A620123FB75FB7D18461837E6
:10106000BD4680BDFDF7E1FFFE0E1FFF80B584B0D9
:1010700000AF78600023FB737B6893F82430012B6A
:1010800001D1022398E07B68012283F8242078684C
:1010900000F0D0FA0346FB73FB7B002B40F0878007
:1010A0007B689B6A23F4407323F0010343F480724E
:1010B0007B689A627B681B68414A934205D1414B29
:1010C0005B6803F47023002B15D17B689B6A23F4C3
:1010D00080127B689A627B681B685B6803F480639C
:1010E000002B26D07B689B6A23F4405343F4805244
:1010F0007B689A621DE07B689B6A43F480127B6880
:101100009A627B681B682F4A934204D07B681B68F5
:101110002B4A93420DD12B4B5B6803F48063002B69
:1011200007D07B689B6A23F4405343F480527B686A
:101130009A627B689B6A03F48053002B06D07B681D
:10114000DB6A23F006027B68DA6202E07B68002239
:10115000DA627B68002283F824207B681B686FF0CA
:1011600002021A607B681B689B6803F46023B3F576
:10117000602F13D17B681B68114A934205D1114B34
:101180005B6803F47023002B08D17B681B689A68A6
:101190007B681B6842F4A0029A600CE07B681B68C5
:1011A0009A687B681B6842F480129A6003E07B684F
:1011B000002283F82420FB7B18461037BD4680BDF3
:1011C000002801400024014080B584B000AF786061
:1011D0000023FB737B6893F82430012B01D1022399
:1011E0001AE07B68012283F82420786800F07CFAFA
:1011F0000346FB73FB7B002B09D17B689B6A23F4BE
:10120000885323F0010343F001027B689A627B68F4
:10121000002283F82420FB7B18461037BD4680BD92
:1012200090B587B000AF7860396000237B61002300
:10123000FB6000233B61FFF713FE78617B681B684E
:101240009B6803F48073002B0BD07B689B6A43F090
:1012500020027B689A627B68002283F824200123A5
:10126000D3E07B681B685B6803F48073002B31D18B
:101270007B681B68DB6A03F47003002B2AD121E032
:101280003B68B3F1FF3F1DD03B68002B07D0FFF751
:10129000E7FD02467B69D31A3A689A4212D27B680C
:1012A0001B681B6803F00203002B0BD17B689B6A51
:1012B00043F004027B689A627B68002283F8242052
:1012C0000323A2E07B681B681B6803F00203002B6A
:1012D000D6D070E04F4B1C68022001F06DF9034638
:1012E000B4FBF3F27B681B6819694B4B0B40002B76
:1012F00018D17B681B68D968484B0B40002B11D173
:101300007B681B681969464B0B40002B08D17B6832
:101310001B68D968434B0B40002B01D1142320E0FC
:1013200029231EE07B681B6819693D4B0B40002B8D
:1013300006D17B681B68D9683A4B0B40002B0DD057
:101340007B681B681969384B0B40002B08D17B6800
:101350001B68D968344B0B40002B01D1542300E0AB
:10136000FC2302FB03F33B6121E03B68B3F1FF3F49
:101370001AD03B68002B07D0FFF772FD02467B694D
:10138000D31A3A689A420FD2FB683A699A420BD94B
:101390007B689B6A43F004027B689A627B68002248
:1013A00083F82420032330E0FB680133FB60FB68F3
:1013B0003A699A42D9D87B681B686FF012021A60AA
:1013C0007B689B6A43F400727B689A627B681B6847
:1013D0009B6803F46023B3F5602F15D17B681B7BFA
:1013E000002B11D17B689B6A23F480727B689A6220
:1013F0007B689B6A03F48053002B05D17B689B6A52
:1014000043F001027B689A62002318461C37BD46F0
:1014100090BD00BF0000002024499224244992007E
:1014200092244912922449004992240080B483B046
:1014300000AF78607B681B68DB6C18460C37BD46D4
:1014400080BC704780B485B000AF786039600023FD
:10145000FB730023BB607B6893F82430012B01D120
:101460000223DCE07B68012283F824203B685B6870
:10147000062B1CD87B681B68596B3B685A6813465F
:101480009B001344053B1F2202FA03F3DB43194080
:101490003B6818683B685A6813469B001344053B39
:1014A00000FA03F27B681B680A435A633CE03B681E
:1014B0005B680C2B1CD87B681B68196B3B685A68EF
:1014C00013469B001344233B1F2202FA03F3DB4322
:1014D00019403B6818683B685A6813469B001344E0
:1014E000233B00FA03F27B681B680A431A631BE084
:1014F0007B681B68D96A3B685A6813469B00134493
:10150000413B1F2202FA03F3DB4319403B68186892
:101510003B685A6813469B001344413B00FA03F2B0
:101520007B681B680A43DA623B681B68092B1CD97D
:101530007B681B68D9683B681A6813465B001344D4
:101540001E3B072202FA03F3DB4319403B6898680D
:101550003B681A6813465B0013441E3B00FA03F213
:101560007B681B680A43DA6019E07B681B681969AD
:101570003B681A6813465B001344072202FA03F320
:10158000DB4319403B6898683B681A6813465B0068
:10159000134400FA03F27B681B680A431A613B6834
:1015A0001B68102B03D03B681B68112B32D17B6862
:1015B0001B681D4A934225D17B681B689B6803F416
:1015C0000003002B26D17B681B689A687B681B6828
:1015D00042F400029A603B681B68102B1AD1134B2F
:1015E0001B68134AA2FB03239A0C13469B00134467
:1015F0005B00BB6002E0BB68013BBB60BB68002BCB
:10160000F9D107E07B689B6A43F020027B689A620D
:101610000123FB737B68002283F82420FB7B1846A0
:101620001437BD4680BC70470024014000000020F4
:1016300083DE1B4380B584B000AF78600023FB607D
:101640000023BB607B681B689B6803F00103012BD0
:1016500040D07B681B689A687B681B6842F0010277
:101660009A601F4B1B681F4AA2FB03239B0CBB60A5
:1016700002E0BB68013BBB60BB68002BF9D1FFF700
:10168000EFFBF8601FE0FFF7EBFB0246FB68D31AA5
:10169000022B18D97B681B689B6803F00103012BA0
:1016A00011D07B689B6A43F010027B689A627B686A
:1016B000DB6A43F001027B68DA627B68002283F810
:1016C0002420012307E07B681B689B6803F001036B
:1016D000012BD8D1002318461037BD4680BD00BF6E
:1016E0000000002083DE1B4380B584B000AF78602B
:1016F0000023FB607B681B689B6803F00103012BE0
:101700002ED17B681B689A687B681B6822F00102F7
:101710009A60FFF7A5FBF8601BE0FFF7A1FB02460C
:10172000FB68D31A022B14D97B681B689B6803F0F3
:101730000103012B0DD17B689B6A43F010027B688B
:101740009A627B68DB6A43F001027B68DA620123FC
:1017500007E07B681B689B6803F00103012BDCD06A
:10176000002318461037BD4680BD000080B485B008
:1017700000AF78607B6803F00703FB600C4BDB680D
:10178000BB60BA684FF6FF031340BB60FB681A02E8
:10179000BB68134343F0BF6343F40033BB60044AA8
:1017A000BB68D36000BF1437BD4680BC704700BF24
:1017B00000ED00E080B400AF044BDB681B0A03F0CF
:1017C00007031846BD4680BC704700BF00ED00E02F
:1017D00080B483B000AF03463960FB7197F90730DE
:1017E000002B0ADB3B68DAB20C4997F9073012018B
:1017F000D2B20B4483F800230AE03B68DAB208490E
:10180000FB7903F00F03043B1201D2B20B441A76AA
:1018100000BF0C37BD4680BC704700BF00E100E050
:1018200000ED00E080B489B000AFF860B9607A6084
:10183000FB6803F00703FB61FB69C3F10703042B9B
:1018400028BF0423BB61FB690433062B02D9FB6963
:10185000033B00E000237B614FF0FF32BB6902FADB
:1018600003F3DA43BB681A407B699A404FF0FF31BB
:101870007B6901FA03F3D9437B680B401343184695
:101880002437BD4680BC704780B582B000AF786019
:101890007B68013BB3F1807F01D301230FE00A4A4B
:1018A0007B68013B53600F214FF0FF30FFF790FF43
:1018B000054B00229A60044B07221A600023184649
:1018C0000837BD4680BD00BF10E000E080B582B0A3
:1018D00000AF78607868FFF749FF00BF0837BD4662
:1018E00080BD80B586B000AF0346B9607A60FB73F7
:1018F00000237B61FFF75EFF78617A68B9687869D9
:10190000FFF790FF024697F90F3011461846FFF790
:101910005FFF00BF1837BD4680BD80B582B000AF05
:1019200078607868FFF7B0FF034618460837BD4671
:1019300080BD000080B48BB000AF786039600023B8
:101940007B6200233B6261E101227B6A02FA03F3BE
:10195000FB613B681B68FA691340BB61BA69FB69AC
:101960009A4240F050813B685B68974A93425ED050
:10197000954A934275D8954A934258D0934A9342D8
:101980006FD8934A934252D0914A934269D8914A70
:1019900093424CD08F4A934263D88F4A934246D0A9
:1019A0008D4A93425DD8122B2AD8122B59D801A206
:1019B00052F823F02F1A0008091A00081B1A000811
:1019C0005D1A0008631A0008631A0008631A000809
:1019D000631A0008631A0008631A0008631A0008F3
:1019E000631A0008631A0008631A0008631A0008E3
:1019F000631A0008631A0008111A0008251A000863
:101A0000764A934213D02CE03B68DB683B6229E0C6
:101A10003B68DB6804333B6224E03B68DB680833E7
:101A20003B621FE03B68DB680C333B621AE03B68BB
:101A30009B68002B02D104233B6213E03B689B6848
:101A4000012B05D108233B627B68FA691A6109E022
:101A500008233B627B68FA695A6103E000233B621A
:101A600000E000BFBB69FF2B01D87B6801E07B6809
:101A700004337B61BB69FF2B02D87B6A9B0002E0C9
:101A80007B6A083B9B003B617B691A680F213B69BD
:101A900001FA03F3DB431A40396A3B6901FA03F3A5
:101AA0001A437B691A603B685B6803F08053002B24
:101AB00000F0A9804A4B9B69494A43F001039361B6
:101AC000474B9B6903F00103BB60BB68454A7B6AD7
:101AD0009B08023352F82330FB607B6A03F0030358
:101AE0009B000F2202FA03F3DB43FA681340FB600A
:101AF0007B683D4A93420DD07B683C4A934207D0B5
:101B00007B683B4A934201D1022304E0032302E0B5
:101B1000012300E000237A6A02F00302920093405E
:101B2000FA681343FB602F497B6A9B080233FA680B
:101B300041F823203B685B6803F48013002B06D038
:101B40002C4B9A682B49BB6913438B6006E0294BE9
:101B50009A68BB69DB43274913408B603B685B682D
:101B600003F40013002B06D0224BDA682149BB692D
:101B70001343CB6006E01F4BDA68BB69DB431D49AA
:101B80001340CB603B685B6803F40033002B06D046
:101B9000184B5A681749BB6913434B6006E0154B55
:101BA0005A68BB69DB43134913404B603B685B6871
:101BB00003F48033002B1FD00E4B1A680D49BB690C
:101BC00013430B601FE000BF000032100000311013
:101BD000000022100000211000001210000011105F
:101BE000001002400000014000080140000C0140CC
:101BF00000100140000401400B4B1A68BB69DB4335
:101C0000094913400B607B6A01337B623B681A68A9
:101C10007B6A22FA03F3002B7FF496AE00BF00BF6D
:101C20002C37BD4680BC70470004014080B586B0AB
:101C300000AF78607B68002B01D1012372E27B68E2
:101C40001B6803F00103002B00F08780924B5B6858
:101C500003F00C03042B0CD08F4B5B6803F00C03D8
:101C6000082B12D18C4B5B6803F48033B3F5803FB3
:101C70000BD1894B1B6803F40033002B6CD07B68BD
:101C80005B68002B68D101234CE27B685B68B3F58D
:101C9000803F06D1804B1B687F4A43F4803313603A
:101CA0002EE07B685B68002B0CD17B4B1B687A4A6B
:101CB00023F480331360784B1B68774A23F4802326
:101CC00013601DE07B685B68B3F5A02F0CD1724BED
:101CD0001B68714A43F4802313606F4B1B686E4A84
:101CE00043F4803313600BE06B4B1B686A4A23F4A8
:101CF00080331360684B1B68674A23F480231360AA
:101D00007B685B68002B13D0FFF7AAF8386108E006
:101D1000FFF7A6F802463B69D31A642B01D90323C7
:101D200000E25D4B1B6803F40033002BF0D014E09D
:101D3000FFF796F8386108E0FFF792F802463B6932
:101D4000D31A642B01D90323ECE1534B1B6803F432
:101D50000033002BF0D100E000BF7B681B6803F06C
:101D60000203002B63D04C4B5B6803F00C03002B89
:101D70000BD0494B5B6803F00C03082B1CD1464B7E
:101D80005B6803F48033002B16D1434B1B6803F0D0
:101D90000203002B05D07B681B69012B01D00123B6
:101DA000C0E13D4B1B6823F0F8027B685B69DB00F8
:101DB000394913430B603AE07B681B69002B20D044
:101DC000364B01221A60FFF74BF8386108E0FFF745
:101DD00047F802463B69D31A022B01D90323A1E13C
:101DE0002D4B1B6803F00203002BF0D02A4B1B681D
:101DF00023F0F8027B685B69DB00274913430B6023
:101E000015E0264B00221A60FFF72AF8386108E037
:101E1000FFF726F802463B69D31A022B01D90323A8
:101E200080E11D4B1B6803F00203002BF0D17B689F
:101E30001B6803F00803002B3AD07B689B69002BDA
:101E400019D0174B01221A60FFF70AF8386108E031
:101E5000FFF706F802463B69D31A022B01D9032388
:101E600060E10D4B5B6A03F00203002BF0D0012010
:101E700000F0CEFA1CE00A4B00221A60FEF7F0FFD9
:101E800038610FE0FEF7ECFF02463B69D31A022BE4
:101E900008D9032346E100BF00100240000042427F
:101EA00080044242924B5B6A03F00203002BE9D1AB
:101EB0007B681B6803F00403002B00F0A68000235E
:101EC000FB758B4BDB6903F08053002B0DD1884BE6
:101ED000DB69874A43F08053D361854BDB6903F0AC
:101EE0008053BB60BB680123FB75824B1B6803F406
:101EF0008073002B18D17F4B1B687E4A43F480739C
:101F00001360FEF7ADFF386108E0FEF7A9FF024657
:101F10003B69D31A642B01D9032303E1754B1B687A
:101F200003F48073002BF0D07B68DB68012B06D1B3
:101F30006F4B1B6A6E4A43F0010313622DE07B680E
:101F4000DB68002B0CD16A4B1B6A694A23F0010342
:101F50001362674B1B6A664A23F0040313621CE09A
:101F60007B68DB68052B0CD1614B1B6A604A43F030
:101F7000040313625E4B1B6A5D4A43F00103136264
:101F80000BE05B4B1B6A5A4A23F001031362584B68
:101F90001B6A574A23F0040313627B68DB68002B3B
:101FA00015D0FEF75DFF38610AE0FEF759FF0246E3
:101FB0003B69D31A41F28832934201D90323B1E03D
:101FC0004B4B1B6A03F00203002BEED014E0FEF72C
:101FD00047FF38610AE0FEF743FF02463B69D31A28
:101FE00041F28832934201D903239BE0404B1B6AA4
:101FF00003F00203002BEED1FB7D012B05D13C4BFE
:10200000DB693B4A23F08053D3617B68DB69002B9B
:1020100000F08780364B5B6803F00C03082B61D01F
:102020007B68DB69022B46D1334B00221A60FEF736
:1020300017FF386108E0FEF713FF02463B69D31A29
:10204000022B01D903236DE0294B1B6803F00073B9
:10205000002BF0D17B681B6AB3F5803F08D1244B7D
:102060005B6823F400327B689B68214913434B6013
:102070001F4B5B6823F474127B68196A7B685B6A88
:102080000B431B4913434B601B4B01221A60FEF7A5
:10209000E7FE386108E0FEF7E3FE02463B69D31A2B
:1020A000022B01D903233DE0114B1B6803F00073A1
:1020B000002BF0D035E0104B00221A60FEF7D0FE66
:1020C000386108E0FEF7CCFE02463B69D31A022BCA
:1020D00001D9032326E0064B1B6803F00073002B95
:1020E000F0D11EE07B68DB69012B07D1012319E0E9
:1020F0000010024000700040600042420B4B5B68E1
:10210000FB60FB6803F480327B681B6A9A4206D14D
:10211000FB6803F470127B685B6A9A4201D001236A
:1021200000E0002318461837BD4680BD001002406D
:1021300080B584B000AF786039607B68002B01D136
:102140000123D0E06A4B1B6803F007033A689A4208
:1021500010D9674B1B6823F0070265493B6813439E
:102160000B60634B1B6803F007033A689A4201D087
:102170000123B8E07B681B6803F00203002B20D02A
:102180007B681B6803F00403002B05D0594B5B6888
:10219000584A43F4E06353607B681B6803F008030C
:1021A000002B05D0534B5B68524A43F46053536095
:1021B000504B5B6823F0F0027B689B684D491343EA
:1021C0004B607B681B6803F00103002B40D07B68E9
:1021D0005B68012B07D1474B1B6803F40033002BCE
:1021E00015D101237FE07B685B68022B07D1414B4F
:1021F0001B6803F00073002B09D1012373E03D4BF2
:102200001B6803F00203002B01D101236BE0394B63
:102210005B6823F003027B685B68364913434B60BD
:10222000FEF71EFEF8600AE0FEF71AFE0246FB68A3
:10223000D31A41F28832934201D9032353E02D4B44
:102240005B6803F00C027B685B689B009A42EBD1F1
:10225000274B1B6803F007033A689A4210D2244BBD
:102260001B6823F0070222493B6813430B60204B95
:102270001B6803F007033A689A4201D0012332E059
:102280007B681B6803F00403002B08D0194B5B68C4
:1022900023F4E0627B68DB68164913434B607B687C
:1022A0001B6803F00803002B09D0124B5B6823F472
:1022B00060527B681B69DB000E4913434B6000F0E2
:1022C00021F802460B4B5B681B0903F00F030A4918
:1022D000CB5C22FA03F3094A1360094B1B681846CA
:1022E000FEF77CFD002318461037BD4680BD00BFB9
:1022F0000020024000100240D03A000800000020F8
:102300000400002080B487B000AF0023FB600023EE
:10231000BB6000237B6100237B6000233B611E4B7D
:102320005B68FB60FB6803F00C03042B02D0082BF6
:1023300003D027E0194B3B6127E0FB689B0C03F0BF
:102340000F03174AD35C7B60FB6803F48033002BD8
:1023500010D0114B5B685B0C03F00103114AD35C96
:10236000BB607B680D4A03FB02F2BB68B2FBF3F370
:102370007B6104E07B680C4A02FB03F37B617B69B1
:102380003B6102E0054B3B6100BF3B6918461C37CF
:10239000BD4680BC704700BF0010024000127A00AA
:1023A000E83A0008F83A000800093D0080B400AFA0
:1023B000024B1B681846BD4680BC704700000020D9
:1023C00080B500AFFFF7F2FF0246054B5B681B0AC2
:1023D00003F007030349CB5C22FA03F3184680BDE0
:1023E00000100240E03A000880B500AFFFF7DEFFC2
:1023F0000246054B5B68DB0A03F007030349CB5C2D
:1024000022FA03F3184680BD00100240E03A0008AB
:1024100080B485B000AF78600A4B1B680A4AA2FB03
:1024200003235B0A7A6802FB03F3FB6000BFFB68CF
:102430005A1EFA60002BF9D100BF00BF1437BD4609
:1024400080BC704700000020D34D621080B586B07C
:1024500000AF786000233B610023FB607B681B6852
:1024600003F00103002B7DD00023FB754F4BDB698C
:1024700003F08053002B0DD14C4BDB694B4A43F0EA
:102480008053D361494BDB6903F08053BB60BB6869
:102490000123FB75464B1B6803F48073002B18D196
:1024A000434B1B68424A43F480731360FEF7D8FC29
:1024B000386108E0FEF7D4FC02463B69D31A642B6E
:1024C00001D903236DE03A4B1B6803F48073002BA2
:1024D000F0D0364B1B6A03F44073FB60FB68002BA3
:1024E0002ED07B685B6803F44073FA689A4227D069
:1024F0002E4B1B6A23F44073FB602E4B01221A60A3
:102500002C4B00221A60294AFB681362FB6803F017
:102510000103002B14D0FEF7A3FC38610AE0FEF79C
:102520009FFC02463B69D31A41F28832934201D99B
:10253000032336E01D4B1B6A03F00203002BEED091
:102540001A4B1B6A23F440727B685B68174913437C
:102550000B62FB7D012B05D1144BDB69134A23F081
:102560008053D3617B681B6803F00203002B08D003
:102570000E4B5B6823F440427B689B680B49134316
:102580004B607B681B6803F01003002B08D0074BDF
:102590005B6823F480027B68DB68044913434B606B
:1025A000002318461837BD4680BD00BF001002400A
:1025B000007000404004424280B588B000AF7860AF
:1025C00000237B610023FB6100233B610023FB6050
:1025D0000023BB617B68102B0AD07B68102B00F2B4
:1025E0008A807B68012B45D07B68022B75D082E006
:1025F000464B5B68FB60454B1B6803F08073002B08
:102600007BD0FB689B0C03F00F03414AD35C3B611A
:10261000FB6803F48033002B15D03C4B5B685B0CEC
:1026200003F001033B4AD35C7B61FB6803F4803316
:10263000002B0DD0384A7B69B2FBF3F23B6902FBF9
:1026400003F3FB6104E03B69344A02FB03F3FB61E3
:102650002E4B5B6803F48003B3F5800F02D1FB6956
:10266000BB614AE0FB695B002D4AA2FB03235B08C8
:10267000BB6142E0254B1B6AFB60FB6803F44073BF
:10268000B3F5807F08D1FB6803F00203002B03D071
:102690004FF40043BB611FE0FB6803F44073B3F5E4
:1026A000007F09D1194B5B6A03F00203002B03D0B2
:1026B00049F64043BB610FE0FB6803F44073B3F598
:1026C000407F1CD1114B1B6803F40033002B16D044
:1026D0004FF22443BB6112E011E0FFF785FE024692
:1026E0000A4B5B689B0B03F0030301335B00B2FBF7
:1026F000F3F3BB6104E000BF02E000BF00E000BFF5
:10270000BB6918462037BD4680BD00BF001002409F
:10271000FC3A00080C3B000800127A0000093D005A
:10272000ABAAAAAA80B582B000AF78607B68002B04
:1027300001D1012342E07B6893F84130DBB2002BEA
:1027400006D17B68002283F840207868FEF7ECF918
:102750007B68242283F841207B681B68DA687B68E9
:102760001B6822F40052DA60786800F071F97B6827
:102770001B681A697B681B6822F490421A617B68A7
:102780001B685A697B681B6822F02A025A617B68C1
:102790001B68DA687B681B6842F40052DA607B6869
:1027A00000225A647B68202283F841207B68202223
:1027B00083F842207B6800225A63002318460837BA
:1027C000BD4680BD80B58AB002AFF860B9603B609D
:1027D0001346FB8000237B61FB6893F84130DBB23A
:1027E000202B75D1BB68002B02D0FB88002B01D1B8
:1027F00001236EE0FB6800225A64FB68212283F803
:102800004120FEF72DFB7861FB68FA889A84FB680B
:10281000FA88DA84FB689B68B3F5805F08D1FB68AF
:102820001B69002B04D10023FB61BB68BB6103E083
:10283000BB68FB610023BB612EE03B6800937B69B2
:1028400000228021F86800F048F80346002B05D0EC
:10285000FB68202283F8412003233AE0FB69002B28
:102860000BD1BB691B881A46FB681B68C2F30802C0
:102870005A60BB690233BB6107E0FB691A78FB68E9
:102880001B685A60FB690133FB61FB68DB8C9BB200
:10289000013B9AB2FB68DA84FB68DB8C9BB2002BAD
:1028A000CBD13B6800937B6900224021F86800F09F
:1028B00014F80346002B05D0FB68202283F8412042
:1028C000032306E0FB68202283F84120002300E078
:1028D000022318462037BD4680BD80B586B000AFC4
:1028E000F860B9603B601346FB713BE03B6AB3F1B3
:1028F000FF3F37D0FEF7B4FA02463B68D31A3A6A74
:102900009A4202D33B6A002B01D103233AE0FB68D1
:102910001B68DB6803F00403002B23D0BB68802B0B
:1029200020D0BB68402B1DD0FB681B681B6803F0E0
:102930000803082B16D100237B61FB681B681B680A
:102940007B61FB681B685B687B617B69F86800F0F2
:102950001DF8FB6808225A64FB68002283F84020B7
:1029600001230FE0FB681B681A68BB681340BA6854
:102970009A420CBF01230023DBB21A46FB799A422C
:10298000B4D0002318461837BD4680BD80B495B03A
:1029900000AF78607B681B680C337B637B6B53E80C
:1029A000003F3B633B6B23F49073FB647B681B68C5
:1029B0000C33FA6C3A64FB63F96B3A6C41E8002320
:1029C000BB63BB6B002BE5D17B681B6814333B6298
:1029D0003B6A53E8003FFB61FB6923F00103BB64E2
:1029E0007B681B681433BA6CFA62BB62B96AFA6A14
:1029F00041E800237B627B6A002BE5D17B681B6B7F
:102A0000012B19D17B681B680C33FB60FB6853E812
:102A1000003FBB60BB6823F010037B647B681B68CE
:102A20000C337A6CBA617B617969BA6941E8002339
:102A30003B613B69002BE5D17B68202283F8422073
:102A40007B6800221A6300BF5437BD4680BC7047C4
:102A500080B584B000AF78607B681B681B6923F485
:102A600040517B68DA687B681B680A431A617B689F
:102A70009A687B681B691A437B685B691343BB6078
:102A80007B681B68DB6823F4B05323F00C037A687F
:102A90001268B9680B43D3607B681B685B6923F4D9
:102AA00040717B689A697B681B680A435A617B683E
:102AB0001B682C4A934203D1FFF796FCF86002E0B2
:102AC000FFF77EFCF860FA6813469B0013449A00F7
:102AD0001A447B685B689B00B2FBF3F3224AA2FBBB
:102AE00003235B091901FA6813469B0013449A00FB
:102AF0001A447B685B689B00B2FBF3F21A4BA3FBA2
:102B000002035B09642000FB03F3D31A1B01323379
:102B1000154AA2FB03235B0903F0F0031944FA688A
:102B200013469B0013449A001A447B685B689B0021
:102B3000B2FBF3F20C4BA3FB02035B09642000FB26
:102B400003F3D31A1B013233074AA2FB03235B09A9
:102B500003F00F027B681B680A449A6000BF1037BD
:102B6000BD4680BD003801401F85EB51002310B5E4
:102B70000446C0E90033C0E90433836081814366C1
:102B8000C2818361194608225C3000F0F9F90D4BCF
:102B9000246263620C4BA3620C4BE3620C4B236315
:102BA0000C4B9C4206D003F16802944202D0D03311
:102BB0009C4205D104F15800BDE8104000F058BA1D
:102BC00010BD00BFD12D0008F32D00082B2E0008EA
:102BD0004F2E000808010020024A0349034800F074
:102BE00069B800BF0C000020053900081C00002057
:102BF00041680C4B10B59942044601D000F082FEAA
:102C0000A168094B994202D0204600F07BFEE168A2
:102C1000064B994204D02046BDE8104000F072BE39
:102C200010BD00BF0801002070010020D801002065
:102C300010B50B4B0B4C0C4A20461A6004210022A5
:102C4000FFF794FF04F1680001220921FFF78EFFCE
:102C500004F1D0000222BDE810401221FFF786BF28
:102C60004002002008010020D92B0008014800F094
:102C700000BA00BF49020020014800F0FBB900BFC4
:102C80004902002010B50446FFF7F0FF236A1BB18C
:102C9000BDE81040FFF7F0BF044B2362044B1B68F4
:102CA000002BF5D1FFF7C4FFF2E700BFF12B0008BE
:102CB000400200202DE9F8430746884614460026C6
:102CC000D4E90195B9F1010905D52468002CF7D1A3
:102CD0003046BDE8F883AB89012B07D9B5F90E3032
:102CE000013303D029463846C04706436835E9E733
:102CF0000FB407B5064904AB086853F8042B816884
:102D0000019300F0D7FA03B05DF804EB04B070470C
:102D100018000020036A70B505460E4684680BB99A
:102D2000FFF7B0FF636EDB0705D4A389980502D4D3
:102D3000A06D00F09EF9A389190702D52369002B25
:102D400035D12146284600F0C5F880B34FF0FF3555
:102D5000636EDA0705D4A3899B0502D4A06D00F049
:102D600089F9284670BD002B04DAA2699A4217DC63
:102D70000A2915D023685A1C22601970A36816F816
:102D8000011F013BA3600029EDD1002B11DA22467F
:102D90000A21284600F05FF80130D7D00A25D7E78E
:102DA0002246284600F057F80130E7D1CEE7013E31
:102DB000E4E723685A1C22600A221A70EEE700003A
:102DC000024B01461868FFF7A5BF00BF180000209E
:102DD00010B50C46B1F90E1000F0FCF80028ABBF9E
:102DE000636DA3891B1823F48053ACBF6365A38173
:102DF00010BD2DE9F0411F468B890546DB050C46C9
:102E0000164605D502230022B1F90E1000F0D0F8C5
:102E1000A389324623F48053A38128463B46B4F964
:102E20000E10BDE8F04100F0E7B810B50C46B1F95E
:102E30000E1000F0BDF8431CA38915BF606523F494
:102E4000805343F48053A38118BFA38110BDB1F90F
:102E50000E1000F09DB8F8B50E461446054618B1A0
:102E6000036A0BB9FFF70EFFA369A360A3891A07D2
:102E700001D5236943B92146284600F02BF818B143
:102E80004FF0FF373846F8BD23682269F6B2981A2A
:102E900063693746834205DC2146284600F032FD4F
:102EA0000028EDD1A368013BA36023685A1C22606F
:102EB0001E706269431C9A4204D0A389DB07E1D5E6
:102EC0000A2EDFD12146284600F01CFD0028D9D06B
:102ED000D6E7000038B5294B054618680C4618B1EE
:102EE000036A0BB9FFF7CEFEB4F90C30190722D4F0
:102EF000DA0607D409222A6043F040034FF0FF307E
:102F0000A38133E0580712D5616B41B104F144034A
:102F1000994202D0284600F0AFF800236363A389EA
:102F200023F02403A3810023636023692360A38922
:102F300043F00803A38123694BB9A38903F42073E9
:102F4000B3F5007F03D02146284600F028FDB4F9F0
:102F50000C3013F001020AD00022A26062695242D2
:102F6000A261226942B913F08000C5D138BD99072A
:102F700058BF6269A260F4E70020F7E7180000205C
:102F800003460244934200D1704703F8011BF9E75E
:102F900038B50023054D044608462B60FDF775FE45
:102FA000431C02D12B6803B1236038BD44020020CA
:102FB00038B50446084611460022054D2A601A46D7
:102FC000FDF787FE431C02D12B6803B1236038BD97
:102FD0004402002038B50446084611460022054D3B
:102FE0002A601A46FDF718FE431C02D12B6803B174
:102FF000236038BD4402002038B504460846114617
:103000000022054D2A601A46FDF723FE431C02D11B
:103010002B6803B1236038BD44020020014B1868BF
:10302000704700BF1800002070B500260C4D0D4CF5
:10303000641BA410A64209D100F02EFD00260A4D03
:103040000A4C641BA410A64205D170BD55F8043B80
:1030500098470136EEE755F8043B98470136F2E70A
:10306000443B0008443B0008443B0008483B000840
:10307000704770477047000038B50546002940D0BA
:1030800051F8043C0C1F002BB8BFE41800F0DEF828
:103090001C4A136833B9636014602846BDE83840A1
:1030A00000F0DAB8A34208D9206821188B4201BF8A
:1030B00019685B6809182160EDE71A465B680BB177
:1030C000A342FAD911685018A0420BD120680144DC
:1030D000501883421160E0D118685B6808441060A2
:1030E0005360DAE702D90C232B60D6E72068211859
:1030F0008B4201BF19685B680918216063605460E6
:10310000CBE738BD5002002070B50F4E0C46316839
:10311000054611B900F0A2FC30602146284600F0B7
:103120009DFC431C03D14FF0FF34204670BDC41CEE
:1031300024F00304A042F8D0211A284600F08EFCA7
:103140000130F2D1EFE700BF4C0200202DE9F84337
:10315000CD1C25F0030508350C2D38BF0C25002D9E
:10316000064601DBA94204D90C2333600020BDE8E8
:10317000F883DFF8D48000F069F8D8F800301C46F6
:1031800044BB29463046FFF7BFFF431C044658D1D5
:10319000D8F800402746002F43D1002C4BD023689D
:1031A0003946304604EB030900F058FC814542D112
:1031B000216830466D1A2946FFF7A6FF01303AD044
:1031C00023682B442360D8F800305A6862BBC8F8E3
:1031D00000700FE02268521B20D40B2A17D9611906
:1031E000A342256018BF5960636808BFC8F8001083
:1031F00062514B60304600F02FF804F10B00231DA4
:1032000020F00700C21A1CBF1B1AA350AFE7626868
:10321000A3420CBFC8F800205A60EBE7234664685D
:10322000AEE73C467F68B6E71A465B68A342FBD12F
:1032300000235360DEE70C233046336000F00CF8C7
:1032400094E70560D6E700BF500200200148FFF771
:1032500010BF00BF480200200148FFF70BBF00BFAE
:1032600048020020936810B4013B002B936007DAFA
:103270009469A34201DB0A2902D110BCFFF7EBBD20
:103280001368581C10601970084610BC7047F8B5D8
:1032900006460F461446D518AC4201D1002007E07F
:1032A0003A46304614F8011BFFF7DCFF431CF3D10C
:1032B000F8BD00002DE9F04F0D461446984606462D
:1032C0009DB018B1036A0BB9FFF7DCFC6B6ED90730
:1032D00005D4AB899A0502D4A86DFFF7CAFEAB8965
:1032E0001B0701D52B699BB929463046FFF7F2FD34
:1032F00070B16B6EDC0704D54FF0FF301DB0BDE838
:10330000F08FAB899805F7D4A86DFFF7B3FEF3E70C
:103310000023099320238DF8293030234FF0010931
:10332000CDF80C80DFF8A8818DF82A3023469A4624
:1033300013F8012B0AB1252AF9D1BAEB040B0BD0F3
:103340005B46224629463046FFF7A1FF013000F0D8
:10335000A780099A5A4409929AF80030002B00F08D
:103360009F8000234FF0FF32CDE905230AF1010AC7
:10337000049307938DF853301A935446052214F89A
:10338000011B534800F07AFB049AD8B9D10644BF18
:1033900020238DF85330130744BF2B238DF853306F
:1033A0009AF800302A2B15D0544600204FF00A0C12
:1033B000079A214611F8013B303B092B4BD9B0B19C
:1033C000079214E0A0EB080309FA03F31343A246A3
:1033D0000493D2E7039B191D1B680391002BBBBF0D
:1033E0005B4242F0020207930793B8BF049223782E
:1033F0002E2B0AD163782A2B32D1039B02341A1D5B
:103400001B68039243EAE3730593DFF8C8A0032225
:103410005046217800F032FB38B14022049BA0EBEB
:103420000A00824013430134049314F8011B06225E
:1034300029488DF8281000F021FB00283FD0274BA9
:103440001BBB039B073323F0070308330393099B3C
:103450003B4409936AE70C4601200CFB0232A8E7C3
:1034600000234FF00A0C194601340593204610F84A
:10347000012B303A092A03D9002BC6D00591C4E7A5
:10348000044601230CFB0121F0E703AB00932A461D
:103490003046134B04A9AFF300800746781CD6D101
:1034A0006B6ED90705D4AB899A0502D4A86DFFF7D6
:1034B000E1FDAB895B063FF51FAF09981EE703AB43
:1034C00000932A463046064B04A900F07DF8E4E755
:1034D0000E3B0008143B0008183B000800000000E9
:1034E0008F3200082DE9F047164698468A680B6926
:1034F00007469342B8BF1346336091F843200C4609
:10350000DDF820900AB1013333602368990642BF89
:10351000336802333360256815F0060506D104F1DF
:10352000190AE36832689B1AAB422BDC94F84330EB
:103530002268003B18BF0123920630D4414638462A
:1035400004F14302C847013023D02368226903F005
:103550000603042B14BF002533684FF0000608BF94
:10356000E56804F11A0408BFED1A54F8123C08BFCC
:1035700025EAE5759342C4BF9B1AED18B5421AD1EE
:10358000002008E00123524641463846C847013032
:1035900003D14FF0FF30BDE8F0870135C1E730209F
:1035A000E11881F843005A1C94F845102244023374
:1035B00082F84310C2E70123224641463846C847F5
:1035C0000130E6D00136D9E72DE9FF470F7E91465D
:1035D000782F80460C469A460C9E01F1430207D88C
:1035E000622F0AD8002F00F0D180582F00F0B88049
:1035F00004F1420684F842703AE0A7F16303152B08
:10360000F6D801A151F823F061360008753600089C
:10361000F1350008F1350008F1350008F1350008F2
:1036200075360008F1350008F1350008F13500085D
:10363000F1350008733700089F3600082D37000861
:10364000F1350008F135000895370008F13500081C
:103650009F360008F1350008F135000835370008BD
:1036600033681A1D1B68326004F1420684F8423048
:1036700001239CE033682068191D3160060601D5DE
:103680001D6803E04506FBD5B3F90050002D03DAB1
:103690002D236D4284F843300A23584811E02168F5
:1036A0003368080653F8045B02D4490648BFADB23C
:1036B0006F2F336014BF0A2308235048002184F879
:1036C00043106668002EA66005DB21682E4321F0BA
:1036D000040121604BD01646B5FBF3F103FB1157F3
:1036E000C75D06F8017D2F46BB420D46F4D9082B75
:1036F0000BD12368DF0708D5236961689942DEBFD3
:10370000302306F8013C06F1FF36921B22614B463E
:1037100021464046CDF800A003AAFFF7E3FE0130A2
:103720004AD14FF0FF3004B0BDE8F087236843F082
:10373000200323607827324884F845702368316875
:103740001F0651F8045B02D45F0648BFADB231607A
:10375000D90744BF43F0200323601DB11023ADE718
:103760002648E9E7236823F020032360F6E716469E
:10377000BDE733682568181D616930602E061B6837
:1037800001D5196002E06806FBD5198000231646B2
:103790002361BCE7336800211A1D32601E6862682D
:1037A000304600F06BF908B1801B606063682361EC
:1037B000002384F84330AAE732464946404623694D
:1037C000D0470130ADD023689B0713D4E068039B3A
:1037D0009842B8BF1846A6E70123324649464046FC
:1037E000D04701309DD00135E36803995B1AAB42A5
:1037F000F2DCEBE7002504F11906F5E71F3B0008B2
:10380000303B0008B1F90C20F8B5160705460C4608
:1038100054D44B68002B02DC0B6C002B48DDE66AAD
:10382000002E45D0002312F480522F68216A2B60AD
:1038300030D0626DA389590705D56368D21A636BCE
:103840000BB1236CD21A00232846E66A216AB047DE
:10385000431CA38906D129681D292BD8284ACA40B0
:10386000D60727D5002262602269D904226004D5D8
:10387000421C01D12B6803B96065616B2F60B9B13F
:1038800004F14403994202D02846FFF7F5FB0023D8
:1038900063630DE001232846B0470246501CC9D19E
:1038A0002B68002BC6D01D2B01D0162B1DD12F60ED
:1038B000002021E043F040031BB21AE00F69002F03
:1038C000F6D0930718BF00230E6808BF4B69F61B9C
:1038D0000F608B60002EEBDD33463A462846216AA6
:1038E000D4F828C0E047002807DCB4F90C3043F0D6
:1038F00040034FF0FF30A381F8BD0744361AE9E7D3
:103900000100402038B50B6905460C4613B9002567
:10391000284638BD18B1036A0BB9FFF7B3F9B4F9FB
:103920000C30002BF3D0626ED00704D4990502D47A
:10393000A06DFFF79EFB28462146FFF763FF636EED
:103940000546DA07E4D4A3899B05E1D4A06DFFF70F
:1039500091FBDDE770B50C46B1F90E101546002954
:103960001E4696B00CDAA389002113F0800F14BF15
:1039700040234FF48063002031602B6016B070BD8F
:103980006A4600F049F80028EDDB019901F4704126
:10399000A1F50053594259414FF48063EBE78B89FD
:1039A000F7B59D0706460C4607D504F1470323608B
:1039B00023610123636103B0F0BD6A4601ABFFF7E9
:1039C000C9FF009F054639463046FFF7BFFB48B99F
:1039D000B4F90C309A05EED423F0030343F002034C
:1039E000A381E2E7A389C4E9040743F08003A3812C
:1039F000019B20605BB13046B4F90E1000F01EF858
:103A000028B1A38923F0030343F00103A381A38911
:103A10001D43A581CFE7000038B50023064D0446BD
:103A2000084611462B60FDF73BF9431C02D12B6879
:103A300003B1236038BD00BF4402002038B5002325
:103A4000054D044608462B60FDF739F9431C02D1A9
:103A50002B6803B1236038BD4402002038B5002331
:103A6000054D044608462B60FDF740F9431C02D182
:103A70002B6803B1236038BD44020020034610B513
:103A8000C9B202449342184601D1002003E00478F1
:103A900001338C42F6D110BDF8B500BFF8BC08BCAC
:103AA0009E467047F8B500BFF8BC08BC9E467047FC
:103AB00054656D703D20256400000000205468723C
:103AC0006F74746C653D2025640000000D000000DB
:103AD00000000000000000000102030406070809BE
:103AE00000000000010203040203040506070809A0
:103AF0000A0B0C0D0E0F101001020000020304054A
:103B0000060708090A0B0C0D0E0F10100102232DD9
:103B1000302B2000686C4C006566674546470030D6
:103B20003132333435363738394142434445460023
:103B30003031323334353637383961626364656623
:043B40000000000081
:043B4400350100083F
:043B4800110100085F
:103B4C0000127A00100000000100000000000000CC
:103B5C0003000000080100201C00002000000000F1
:103B6C000801002070010020D80100200000000096
:103B7C000000000000000000000000000000000039
:103B8C000000000000000000000000000000000029
:103B9C000000000000000000000000000000000019
:083BAC00000000000000000011
:0400000508000D657D
:00000001FF
